:100000000C949A060C94CB060C94CB060C94CB065D
:100010000C94CB060C94CB060C94CB060C94CB061C
:100020000C94CB060C94CB060C94CB060C94CB060C
:100030000C94CB060C94CB060C94CB060C94CB06FC
:100040000C94CB060C94CB060C94CB060C94CB06EC
:100050000C94CB060C94CB060C94CB060C94202667
:100060000C94CB060C9494260C946A260C94CB0624
:100070000C94CB060C94CB060C94CB060C94CB06BC
:100080000C94CB060C94CB060C94CB060C94CB06AC
:100090000C94CB060C94CB060C94CB060C94CA267D
:1000A0000C94CB060C94CB060C94CB060C94CB068C
:1000B0000C94CB060C94CB060C94CB060C94CB067C
:1000C0000C94CB060C94CB060C94CB060C94CB066C
:1000D0000C94CB060C94CB060C94CB060C94CB065C
:1000E0000C94CB060C94A0150C94FE120C94CF1516
:1000F0000C94972C0C9469170C949B150C94B616C1
:100100000C9427250C9470150C9472100C942307F2
:100110000C942C160C942E070C9454190C94341C2B
:100120000C9411160C94A4080C94940A0C94E008F6
:100130000C945A070C9402090C9450070C94C8159F
:100140000C94EB150C94EE270C94670A0C94590749
:100150000C9427070C945A1D0C9445130C94641CA2
:100160000C9446070C949C170C94F2100C948E0F70
:100170000C94160F0C94AB0B0C94D1080C94AB0F91
:100180000C944D0A0C9438070C94A3080C94A21AF2
:100190000C941F070C94D3150C94D1170C94621077
:1001A0000C94E50D0C9405160C9433160C947E10EB
:1001B0000C942B070C9487090C94EC190C946C1577
:1001C0000C94CD160C940C160C94A2080C943E0AB8
:1001D0000C94CD060C945E070C94E4160C948315D5
:1001E0000C9464210C94E2150C944C070C94751536
:1001F0000C943E070C94E7150C942C1E0C94F408F8
:100200000C94B0190C9416150C94731C0C947A155C
:100210000C946D150C94B70E0C947E170C94B217B9
:100220000C9434070C94F2150C947E150C9454071E
:100230000C94B5120C943A090C94600A0C948A1030
:100240000C9442070C941907000103070F1F3F7F0E
:100250000080C0E0F0F8FCFE00000000003E5B4FB4
:100260005B3E3E6B4F6B3E1C3E7C3E1C183C7E3C16
:10027000181C577D571C1C5E7F5E1C00183C180024
:10028000FFE7C3E7FF0018241800FFE7DBE7FF30B4
:10029000483A060E2629792926407F050507407F22
:1002A00005253F5A3CE73C5A7F3E1C1C08081C1C95
:1002B0003E7F14227F22145F5F005F5F06097F018B
:1002C0007F006689956A606060606094A2FFA29476
:1002D00008047E040810207E201008082A1C080844
:1002E0001C2A08081E101010100C1E0C1E0C303892
:1002F0003E3830060E3E0E06000000000000005F93
:1003000000000007000700147F147F14242A7F2AAE
:100310001223130864623649562050000807030070
:10032000001C2241000041221C002A1C7F1C2A08BC
:10033000083E08080080703000080808080800001F
:1003400060600020100804023E5149453E00427F93
:10035000400072494949462141494D331814127FE2
:100360001027454545393C4A494931412111090782
:100370003649494936464949291E00001400000003
:1003800040340000000814224114141414140041D5
:1003900022140802015909063E415D594E7C121192
:1003A000127C7F494949363E414141227F414141CA
:1003B0003E7F494949417F090909013E4141517345
:1003C0007F0808087F00417F41002040413F017FB6
:1003D000081422417F404040407F021C027F7F047E
:1003E00008107F3E4141413E7F090909063E4151C7
:1003F000215E7F09192946264949493203017F01B7
:10040000033F4040403F1F2040201F3F4038403FB7
:10041000631408146303047804036159494D4300CD
:100420007F4141410204081020004141417F040204
:10043000010204404040404000030708002054549B
:1004400078407F2844443838444444283844442879
:100450007F385454541800087E090218A4A49C78CC
:100460007F0804047800447D40002040403D007F28
:100470001028440000417F40007C047804787C0808
:100480000404783844444438FC18242418182424DC
:1004900018FC7C08040408485454542404043F44C1
:1004A000243C4040207C1C2040201C3C4030403CF0
:1004B00044281028444C9090907C4464544C440050
:1004C00008364100000077000000413608000201B4
:1004D0000204023C2623263C1EA1A161123A4040A0
:1004E000207A38545455592155557941225454781D
:1004F00042215554784020545579400C1E527212B6
:10050000395555555939545454593955545458003E
:1005100000457C410002457D420001457C407D1242
:1005200011127DF0282528F07C54554500205454A4
:100530007C547C0A097F4932494949323A4444444F
:100540003A324A4848303A4141217A3A424020788A
:10055000009DA0A07D3D4242423D3D4040403D3C8B
:1005600024FF2424487E4943662B2FFC2F2BFF09B0
:1005700029F620C0887E09032054547941000044A4
:100580007D413048484A32384040227A007A0A0A8F
:10059000727D0D19317D2629292F28262929292602
:1005A00030484D4020380808080808080808382F47
:1005B00010C8ACBA2F102834FA00007B00000814D1
:1005C0002A142222142A14085500550055AA55AAA7
:1005D00055AAFF55FF55FF000000FF00101010FF47
:1005E00000141414FF001010FF00FF1010F010F0A2
:1005F000141414FC001414F700FF0000FF00FF1493
:1006000014F404FC141417101F10101F101F1414DE
:10061000141F00101010F0000000001F1010101028
:100620001F10101010F010000000FF10101010101C
:1006300010101010FF10000000FF140000FF00FF5A
:1006400000001F10170000FC04F4141417101714F6
:1006500014F404F40000FF00F71414141414141418
:10066000F700F7141414171410101F101F1414148B
:10067000F4141010F010F000001F101F0000001FF5
:1006800014000000FC140000F010F01010FF10FF28
:10069000141414FF141010101F00000000F010FFBD
:1006A000FFFFFFFFF0F0F0F0F0FFFFFF00000000A1
:1006B00000FFFF0F0F0F0F0F3844443844FC4A4A25
:1006C0004A347E02020606027E027E0263554941DA
:1006D000633844443C04407E201E2006027E020211
:1006E00099A5E7A5991C2A492A1C4C7201724C3025
:1006F0004A4D4D303048784830BC625A463D3E49FC
:100700004949007E0101017E2A2A2A2A2A44445F9F
:10071000444440514A444040444A51400000FF0193
:1007200003E080FF000008086B6B083612362436A1
:10073000060F090F06000018180000001010003006
:1007400040FF0101001F01011E00191D1712003C8E
:100750003C3C3C0000000000DB40A4A62EAF200083
:10076000A1C8D300408DAED580A800006000000075
:100770000000000000000000000000E00000000099
:1007800000000000000000000001E0000000000088
:10079000000000000000000001F000000000000068
:1007A0000000000000000003F00000000000000056
:1007B00000000000000007F0000000000000000042
:1007C000000000000007F80000000000000000002A
:1007D000000000000FF800000003C0007E000001D0
:1007E000E0007F0FF800000003C000FE000001E001
:1007F00000FFEFF800000003C000FE000001E00071
:10080000FFFFF800000003C000F00000000F007FB1
:10081000FE7FC0000003C000F00000000F003FFE9C
:100820007FF83FF1FBCFFCFEF3BC3DEFE01FFE7F06
:10083000FF7FFBFFDFFEFEFFBC3DEFE01FC6FFFFBB
:100840007FFBFFDFFEFEFFBC3DEFE00FE3C7FE785E
:100850007BC3DE1EF0FFBC3DEF0007FF87FC787B0B
:10086000C3DE1EF0F83C3DEF0001FFFFF0007BC34C
:10087000C01EF0F03C3DEF0001F37FE03FFBC3CF33
:10088000FEF0F03C3DEF0003E33F807FFBC3DFFE63
:10089000F0F03C3DEF0007E73C00787BC3DE1EF044
:1008A000F03C3DEF0007FFBE00787BC3DE1EF0F09A
:1008B0003C3DEF0007FFFE00787BC3DE1EF0F03CFE
:1008C0003DEF000FFFFE007FFBFFDFFEF0F03FFD7E
:1008D000EFE00FFFFF007FFBFFDFFEF0F03FFDEFDB
:1008E000E00FF9FF003E79F9CF9EF0F01F3DE7E001
:1008F0001FF1FF0000000000000000000000001FCA
:1009000080FF007FFFFFFFFFFFFFFFFFFFE01C00F6
:100910007F007FFFFFFFFEB46D888D18E000001F91
:10092000007FFFFFFFFE95AD7DB577E000000F0073
:100930007FFFFFFFFEA5AD9D8D19E0000006007F43
:10094000FFFFFFFEB5ADEDB57EE000000000000149
:100950008000000000000000000003800000000094
:10096000000000000007C0000000000000000000C0
:1009700007C00000000000000000000FC0000000E1
:100980000000000000001FE0000000000000000068
:10099000001FE00000000000000000003FE0000039
:1009A000000000000000003FF00000000000000018
:1009B00000007FF0000000000000001FF87FF00042
:1009C0000000000000003FFE7FF00000000000007B
:1009D000003FFF7FF0000000000000001FFFFBE071
:1009E000000000000000000FFFF9FFC00000000041
:1009F00000000FFFF9FFF800000000000007FFF102
:100A0000FFFF00000000000003FC73FFFF800000F8
:100A100000000001FE3FFFFF80000000000000FF1B
:100A20001E0FFF000000000000007FFE1FFC000002
:100A300000000000003FFFFFF80000000000000081
:100A40000FDFFFE0000000000000001F19FFC000E2
:100A50000000000000003F3CFF000000000000001C
:100A6000007E7CF800000000000000007FFE7C009B
:100A700000000000000000FFFFFC0000000000007C
:100A80000000FFFFFE0000000000000000FFFFFE6E
:100A90000000000000000001FFEFFE000000000069
:100AA000000001FFCFFE0000000000000003FF0770
:100AB000FE0000000000000003FC07FE0000000034
:100AC00000000003F003FE000000000000000180B1
:100AD00000FE000000000000000000007E0000009A
:100AE000000000000000003E0000000000000000C8
:100AF00000000C000000000000078000FC00000364
:100B0000C0000000078001FC000003C000000007D7
:100B10008001FC000003C0000000078001E000002D
:100B2000001E000000078001E00000001E007FE3BF
:100B3000F79FF9FDE7787BDFC0FFF7FFBFFDFDFF03
:100B4000787BDFC0FFF7FFBFFDFDFF787BDFC0F0E4
:100B5000F787BC3DE1FF787BDE00F0F787BC3DE125
:100B6000F0787BDE0000F787803DE1E0787BDE00F7
:100B70007FF7879FFDE1E0787BDE00FFF787BFFD11
:100B8000E1E0787BDE00F0F787BC3DE1E0787BDEDA
:100B900000F0F787BC3DE1E0787BDE00F0F787BC32
:100BA0003DE1E0787BDE00FFF7FFBFFDE1E07FFB8A
:100BB000DFC0FFF7FFBFFDE1E07FFBDFC07CF3F3A9
:100BC0009F3DE1E03E7BCFC0000000000000000040
:100BD000000000FFFFFFFFFFFFFFFFFFFFC0FFFF61
:100BE000FFFFFD68DB111A31C0FFFFFFFFFD2B5A2D
:100BF000FB6AEFC0FFFFFFFFFD4B5B3B1A33C0FFFB
:100C0000FFFFFFFD6B5BDB6AFDC0000021002400DD
:100C100027002A002D0030003300010100000401EC
:100C200007010A0100002200250028002B002E00E9
:100C30003100340002010000050108010B01000031
:100C400020002300260029002C002F003200000184
:100C5000000003010601090105050505070508084F
:100C60000808020202020A0A080804040404010136
:100C7000010101010101030303030303030304074B
:100C800007070C0C0C0C0C0C0C0C020202020606E2
:100C90000606060606060B0B0B0B0B0B0B0B0102D5
:100CA000102020080810204010204080020102017E
:100CB0000804020101020408102040808040201036
:100CC000080402018004020180402010080402018F
:100CD00008040201010204081020408001020408F7
:100CE0001020408000000A0B02090C0D0E080703BB
:100CF00004010000000000000000000000000000EF
:100D000000000000000000000000000000000000E3
:100D100012111000000000000000000000000000A0
:100D2000000000000000000000002200FF21000081
:100D3000EE27972C11241FBECFEFD1E2DEBFCDBF2F
:100D400000E00CBF17E0A0E0B2E0E8E7F2E600E068
:100D50000BBF02C007900D92A831B107D9F729E067
:100D6000A8E1B7E001C01D92A039B207E1F716E093
:100D7000C9E9D6E000E006C021970109802FFE01F5
:100D80000E94DC2CC839D10780E00807A9F70E942F
:100D9000FF280C942A310C94000008951F93CF93E0
:100DA000DF93EC01162F80914A0990914B0900972F
:100DB00039F0DC01ED91FC910480F581E02D19956D
:100DC000D0934B09C0934A09112339F0E881F98186
:100DD0000190F081E02DCE01199580914A09909102
:100DE0004B09DC01ED91FC910684F785E02DDF9144
:100DF000CF911F9119948150823108F05AC0E82F89
:100E0000F0E08827E95FF84F8F4F0C94DC2C270720
:100E10002B0719071F07230759072E073407380721
:100E20003E07420746074C075007590754075A0721
:100E30005E07809180008F77809380000895809175
:100E400080008F7DF9CF80918000877FF5CF84B5BA
:100E50008F7784BD089584B58F7DFBCF8091B000DE
:100E60008F778093B00008958091B0008F7DF9CF87
:100E7000809190008F7780939000089580919000EA
:100E80008F7DF9CF80919000877FF5CF8091A00072
:100E90008F778093A00008958091A0008F7DF9CF77
:100EA0008091A000877FF5CF809120018F7780937C
:100EB00020010895809120018F7DF9CF809120013C
:100EC000877FF5CFCF93DF93282F30E0F901EC51E6
:100ED000F34F8491F901E256F34FD491F901E85AA6
:100EE000F34FC491CC23A1F081110E94FB06EC2F9B
:100EF000F0E0EE0FFF1FE25CF34FA591B491EC918F
:100F0000ED2381E090E009F480E0DF91CF91089536
:100F100080E090E0FACF1F93CF93DF93282F30E04B
:100F2000F901EC51F34F8491F901E256F34FD4915A
:100F3000F901E85AF34FC491CC23A9F0162F81117F
:100F40000E94FB06EC2FF0E0EE0FFF1FEC5DF34F6D
:100F5000A591B4918FB7F894EC91111108C0D09578
:100F6000DE23DC938FBFDF91CF911F910895DE2B9D
:100F7000F8CF1F93CF93DF93182F682F617086E00F
:100F80000E948B07C12FD0E0BE01759567956170F7
:100F900087E00E948B07BE017595679575956795EB
:100FA000617088E00E948B07BE0123E0759567950C
:100FB0002A95E1F7617089E00E948B07BE0134E059
:100FC000759567953A95E1F761708AE00E948B0705
:100FD000BE0145E0759567954A95E1F761708BE034
:100FE0000E948B0756E0D595C7955A95E1F76C2F6F
:100FF00061708CE00E948B07612F661F6627661F59
:101000008DE00E948B0786E30E94620721E0892B16
:1010100009F420E0822FDF91CF911F910895CF93A3
:10102000DF9390E0FC01E256F34F2491885A934FEE
:10103000FC0184918823C9F090E0880F991FFC017E
:10104000E65FF34FA591B491FC01EC5DF34FC591C0
:10105000D49161110DC09FB7F8948C912095822393
:101060008C938881282328839FBFDF91CF91089597
:10107000623051F49FB7F8943C91822F809583237E
:101080008C93E8812E2BEFCF8FB7F894EC912E2B19
:101090002C938FBFEACF3FB7F894809125089091A9
:1010A0002608A0912708B091280826B5A89B05C05E
:1010B0002F3F19F00196A11DB11D3FBFBA2FA92FD7
:1010C000982F8827BC01CD01620F711D811D911DD4
:1010D00042E0660F771F881F991F4A95D1F7089540
:1010E0008F929F92AF92BF92CF92DF92EF92FF9238
:1010F0004B015C010E944B086B017C010E944B0874
:101100006C197D098E099F09683E73408105910520
:10111000A8F321E0821A9108A108B10888EEC80E50
:1011200083E0D81EE11CF11C81149104A104B104D8
:1011300029F7FF90EF90DF90CF90BF90AF909F90F6
:101140008F90089508950895AF92BF92CF92DF9245
:10115000EF92FF920F931F93CF93DF936C017B016C
:101160008B01040F151FEB015E01AE18BF08C017FD
:10117000D10759F06991D601ED91FC910190F08170
:10118000E02DC6011995892B79F7C501DF91CF9123
:101190001F910F91FF90EF90DF90CF90BF90AF9095
:1011A0000895FC01538D448D252F30E0842F90E06D
:1011B000821B930B541710F0CF9608950197089552
:1011C000FC01918D828D981761F0A28DAE0FBF2F1B
:1011D000B11D5D968C91928D9F5F9F73928F90E071
:1011E00008958FEF9FEF0895FC01918D828D9817E0
:1011F00031F0828DE80FF11D858D90E008958FEF1D
:101200009FEF0895FC01918D228D892F90E0805CE5
:101210009F4F821B91098F73992708958DE298E063
:101220000E94020921E0892B09F420E0822F089511
:10123000FC01A48DA80FB92FB11DA35ABF4F2C914B
:10124000848D90E001968F739927848FA689B78942
:101250002C93A089B1898C91837080648C93938D39
:10126000848D981306C00288F389E02D80818F7DDC
:1012700080830895EF92FF920F931F93CF93DF9394
:10128000EC0181E0888F9B8D8C8D98131AC0E889C2
:10129000F989808185FF15C09FB7F894EE89FF8991
:1012A0006083E889F98980818370806480839FBF2F
:1012B00081E090E0DF91CF911F910F91FF90EF902F
:1012C0000895F62E0B8D10E00F5F1F4F0F7311273F
:1012D000E02E8C8D8E110CC00FB607FCFACFE8897A
:1012E000F989808185FFF5CFCE010E941809F1CFE1
:1012F000EB8DEC0FFD2FF11DE35AFF4FF0829FB7EE
:10130000F8940B8FEA89FB8980818062CFCFCF93DD
:10131000DF93EC01888D8823B9F0AA89BB89E8891D
:10132000F9898C9185FD03C0808186FD0DC00FB6C3
:1013300007FCF7CF8C9185FFF2CF808185FFEDCF41
:10134000CE010E941809E9CFDF91CF91089580E086
:1013500090E0892B29F00E940E0981110E94000063
:1013600080E090E0892B49F080E090E0892B29F023
:101370000E94000081110E94000080E090E0892B13
:1013800049F080E090E0892B29F00E940000811153
:101390000E94000080E090E0892B49F080E090E01E
:1013A000892B29F00E94000081110C9400000895FF
:1013B0002091CF07260F3327331F21323105ECF45C
:1013C0002091F307FC0190E080E0243069F082E096
:1013D0000895A091CF072191AC014155584FA40F1A
:1013E000B52FB11D2C930196861798F38091CF07E6
:1013F000680F6093CF0780E0089581E00895109210
:10140000F30781E08093F5071092F40761E084E12F
:101410000E948B0761E085E10E948B07E9EBF0E019
:1014200080818E7F808380818D7F808388E480931C
:10143000B80085E48093BC000895CF93DF9391E0DA
:101440009093AE078823B9F0C091B800D091BA004C
:101450008091BC008A7B8093BC0060E084E10E94A4
:101460008B0760E085E10E948B070E94FF09D09303
:10147000BA00C093B800DF91CF910895E0911F08A2
:1014800080911E08E81730F4F0E0E757F84F8081AC
:1014900090E008958FEF9FEF089590911F0880913D
:1014A0001E082FEF3FEF981748F4E92FF0E0E757B9
:1014B000F84F208130E09F5F90931F08C901089585
:1014C00080911E0890911F08891B990B0895CF9257
:1014D000DF92EF92FF920F931F93CF93DF937C01E4
:1014E000CB018A0120912C08222389F0EB016B01AA
:1014F000C40ED51ECC15DD0569F06991D701ED91BB
:10150000FC910190F081E02DC7011995F3CF642F74
:101510000E94D809C801DF91CF911F910F91FF90D0
:10152000EF90DF90CF900895CF93DF931F92CDB7C8
:10153000DEB7698320912C082223F9F02091290835
:10154000203258F021E030E0FC013383228390E028
:1015500080E00F90DF91CF91089580912A08E82FC5
:10156000F0E0E759F84F998190838F5F80932A08C4
:101570008093290881E090E0ECCF61E0CE010196F4
:101580000E94D809F7CFCF92DF92EF92FF920F938C
:101590001F93CF93DF93D091290881E0D13208F0D7
:1015A0009CC0C0912B080E944B086B017C0180916C
:1015B000F30781116CC082E08093F30781E0809390
:1015C000F5078FEF8093F20710921708D093160853
:1015D000A9E6B7E0E6EFF7E080E0D8138DC01092FF
:1015E000180880911808CC0FC82BC0931808809158
:1015F000F407813009F084C01092F4070E944B0870
:101600006B017C01809118088093BB008091AA0730
:101610009091AB07A091AC07B091AD07892B8A2BB5
:101620008B2BA1F00E944B080091AA071091AB07E9
:101630002091AC073091AD076C197D098E099F0987
:10164000061717072807390708F442C08091BC0025
:1016500083FDD8CF85EC8093BC000E944B086B01C2
:101660007C018091F307823009F44CC08091F2072D
:101670008F3F09F469C08091F207803209F466C097
:101680008091F207803309F463C084E026C0809122
:10169000AA079091AB07A091AC07B091AD07892B39
:1016A0008A2B8B2B09F483CF0E944B080091AA0749
:1016B0001091AB072091AC073091AD076C197D09F3
:1016C0008E099F09061717072807390708F06FCFFB
:1016D0008091A9070E941D0A85E010922A081092A5
:1016E000290810922C08DF91CF911F910F91FF9044
:1016F000EF90DF90CF9008959D9191938F5F6DCF84
:1017000085EEA9CF8091AA079091AB07A091AC0775
:10171000B091AD07892B8A2B8B2B09F4A2CF0E94A5
:101720004B080091AA071091AB072091AC073091AC
:10173000AD076C197D098E099F0906171707280741
:10174000390708F08ECFC4CF80E0C7CF82E0C5CF85
:1017500083E0C3CF0895FC016370668B848195811B
:1017600026813781613039F0633029F09187808795
:10177000338722870895318720879387828708954A
:101780002F923F924F925F926F927F928F929F9291
:10179000AF92BF92CF92DF92EF92FF920F931F937F
:1017A000CF93DF93CDB7DEB76A970FB6F894DEBF5D
:1017B0000FBECDBF9A8F898F7A8369834A01D22E5B
:1017C00018870F833701BC2CDC0159962D913C9171
:1017D0005A972115310509F015C118968D919C91E4
:1017E0001997681779070CF0D7C11A968D919C91BB
:1017F000481759070CF0D0C14C2C512CB6E0CB9EA9
:10180000600D711D11247C876B87161617060CF06E
:10181000C3C1EA2DF0E0FA87E98793E0EE0FFF1FDE
:101820009A95E1F7F88BEF87CF01840F951F181673
:1018300019060CF0B1C1A98DBA8D58968C91811101
:1018400004C0BFEABD1508F4D394A98DBA8DED91FB
:10185000FC9111970284F385E02DCD011995B5E037
:10186000DB9EC0011124E981FA81FC83EB83312CDA
:10187000212C9C01285A3D4F388F2F8B4A2D50E048
:101880005E8B4D8BEF89F88DE20DF31D44919E82A6
:101890008D82D12CC12C69817A81620D731D7A8B66
:1018A000698B842F90E09C8B8B8BE98DFA8DA081C6
:1018B000B18140FF82C0F1E0BF126FC0AF126DC0B6
:1018C0001C96ED91FC912F813885A4014C0D5D1D76
:1018D00069897A89898D9A8D1995EB89FC89F595A5
:1018E000E7954E2F5FEFC51AD50A6D817E818D89F0
:1018F0009E89680F791F7E836D8398E0C916D10495
:1019000081F6AFEF2A1A3A0AEB81FC81E40DF51D4E
:10191000FC83EB83F5E02F16310409F0B3CF2F8160
:10192000388526153705B9F0A98DBA8DED91FC9152
:10193000B1E0BB1257C0AB1255C069817A816B5FB1
:101940007F4F0088F189E02D830128E030E0A40179
:10195000898D9A8D1995A98DBA8DED91FC9111976C
:101960000688F789E02DCD016A960FB6F894DEBFA0
:101970000FBECDBFDF91CF911F910F91FF90EF90E0
:10198000DF90CF90BF90AF909F908F907F906F909F
:101990005F904F903F902F9019941E96ED91FC917F
:1019A000EF80F88409851A8592014D815E816B81F3
:1019B0007C81898D9A8D199590CF2F813885261538
:1019C000370509F48ACF31E0B31207C0A31205C06E
:1019D0001C96ED91FC91930178CF1E96ED91FC91B0
:1019E0007301E0CF6B857C85641975090684F785E2
:1019F000E02D73010F8518899201A401898D9A8DBC
:101A00001995A9CFF9013496949132974591549143
:101A1000D91AB7E0DB9E400D511D1124F901259123
:101A200034913C8B2B8BFA0125903490FA0132963D
:101A3000749031963491398B3296649031964490FB
:101A400041E04C1518F04A1508F07FC0662D062CB1
:101A5000000C770B7C836B83842D042C000C990B7A
:101A60009E838D83A98DBA8DED91FC91119702848F
:101A7000F385E02DCD011995512CD12CC12CEA2DE7
:101A8000F0E0FA87E9872B2D30E03C872B87A40113
:101A9000440D511D47FC5A95588F4F8B69817A81AF
:101AA000660D711D67FC7A957E876D877989C716EB
:101AB00008F051CF2C2D30E04D815E81420F531F35
:101AC000A985BA854A9FC0014B9F900D5A9F900DE2
:101AD0001124FC01E80DF91DF88BEF87852D612C91
:101AE0004F89588D420F531F5E8B4D8B671408F042
:101AF00050C044244394480E877041F4C1010196BC
:101B0000EB89FC89E20DF31DD4901C01D7FE19C0AE
:101B1000A98DBA8DED91FC91662D70E0B1E0BB12FC
:101B200019C0AB1217C02D853E85620F731F048448
:101B3000F585E02D2F8138854D895E89898D9A8DB7
:101B40001995DD0C6394842DD1CF1E821D821C82D9
:101B50001B8288CF4B815C81640F751FAB85BC8570
:101B60006A9FC0016B9F900D7A9F900D112469812F
:101B70007A81680F791F0684F785E02DEF80F8845D
:101B800009851A859D014F855889898D9A8D1995EA
:101B9000D8CF570CC3948ACF6A960FB6F894DEBF9D
:101BA0000FBECDBFDF91CF911F910F91FF90EF90AE
:101BB000DF90CF90BF90AF909F908F907F906F906D
:101BC0005F904F903F902F9008958F929F92AF9289
:101BD000CF92EF92FF920F931F93CF93DF93EC017D
:101BE000262F898D9A8D009709F051C06A30D1F463
:101BF0001D861C868D8948E0849F900111248E8566
:101C00009F85820F931F9F878E8781E090E0DF91F1
:101C1000CF911F910F91FF90EF90CF90AF909F9039
:101C20008F9008956D3089F3CC88AD888F89882393
:101C3000C1F08C859D8536E0C39E800D911D1124D9
:101C4000488559854817590764F44E855F851D8678
:101C50001C8638E0A39EC0011124840F951F9F8726
:101C60008E87EA88FB88088919894E855F856C858F
:101C70007D85CE010E94C00B2C898C859D8546E018
:101C8000249F800D911D11249D878C87BECF6A30C3
:101C900069F41D861C86FC013896E4912D898E8599
:101CA0009F85E29F800D911D1124ADCF6D3009F409
:101CB000ACCFFC0134963491631708F4A6CF32966A
:101CC000E491E61708F4A1CFFC0132968590949038
:101CD000462F431B342F47E0349F800C911C112466
:101CE000F401329634913196E4913323A9F1EE2335
:101CF00099F1CC88F4013596E491AD884F8944235D
:101D000001F10E2E000CFF0BE30FF11DCE9EA00182
:101D1000CF9E500D11246C857D85460F571F688519
:101D20007985641775076CF44E855F851D861C8662
:101D3000FC013896E491AE9E400D511D11245F8741
:101D40004E87EA88FB88088919894E855F856C85EE
:101D50007D85CE010E94C00BF4013496E4912C895C
:101D60008C859D85E29F800D911D11248DCF6F92F2
:101D70007F928F929F92AF92BF92CF92DF92EF921B
:101D8000FF920F931F93CF93DF93EC016B015A01E6
:101D900039014801E881F9810284F385E02D199524
:101DA000E881F9810288F389E02D87019301A5017B
:101DB000B601CE011995A501480D591D4150510993
:101DC000E881F9810288F389E02D9301B601CE0103
:101DD0001995E881F9810088F189E02D9401A50128
:101DE000B601CE011995C60CD71CB6016150710918
:101DF000E881F9810088F189E02D9401A501CE01E7
:101E00001995E881F9810688F789E02DCE01DF91E7
:101E1000CF911F910F91FF90EF90DF90CF90BF90E7
:101E2000AF909F908F907F906F9019946F927F9258
:101E30008F929F92AF92BF92CF92DF92EF92FF92DA
:101E40000F931F93CF93DF935C01EB016A0149016C
:101E500038018701DC01ED91FC916217730719F5D8
:101E6000641675062CF0962D872D3A01C92ED82EB2
:101E70009601261937092F5F3F4F048CF58DE02D11
:101E8000A301BE01C5011995DF91CF911F910F915B
:101E9000FF90EF90DF90CF90BF90AF909F908F908A
:101EA0007F906F9008954615570591F426173707D0
:101EB00024F0892D4B01C22FD82F9E0128193909F2
:101EC0002F5F3F4F068CF78DE02DA601B401DACFCE
:101ED0000284F385E02D1995D501ED91FC910488DC
:101EE000F589E02D83019401A601BE01C501199574
:101EF000D501ED91FC910688F789E02DC501DF91B0
:101F0000CF911F910F91FF90EF90DF90CF90BF90F6
:101F1000AF909F908F907F906F901994EF92FF9267
:101F20000F931F93DC011A960D911C911B97189625
:101F30002D913C911997ED91FC9100A0F1A1E02D1C
:101F40007B0150E040E070E060E019951F910F9137
:101F5000FF90EF9008954F925F926F927F928F92D1
:101F60009F92AF92BF92CF92DF92EF92FF920F9328
:101F70001F93CF93DF936C012B015A013901480164
:101F8000DC01ED91FC910284F385E02D1995E201CD
:101F9000640C751CD601ED91FC91C615D7055CF457
:101FA0000088F189E02D87019401A501BE01C601D9
:101FB00019952196EFCF0688F789E02DC601DF91AC
:101FC000CF911F910F91FF90EF90DF90CF90BF9036
:101FD000AF909F908F907F906F905F904F901994EB
:101FE0008F929F92AF92BF92CF92DF92EF92FF9229
:101FF0000F931F93CF93DF93EC015B014A016901BB
:10200000E881F9810284F385E02D199595012C0D65
:102010003D1D21503109E881F9810488F589E02DC1
:1020200078018401A401B501CE011995E881F981F7
:102030000688F789E02DCE01DF91CF911F910F9196
:10204000FF90EF90DF90CF90BF90AF909F908F90D8
:1020500019948F929F92AF92BF92CF92DF92EF929C
:10206000FF920F931F93CF93DF93EC015B014A0123
:1020700069017801E881F9810284F385E02D1995E1
:10208000C80CD91C860101501109E881F981048826
:10209000F589E02D9501A401B501CE011995E881DE
:1020A000F9810688F789E02DCE01DF91CF911F914C
:1020B0000F91FF90EF90DF90CF90BF90AF909F90E7
:1020C0008F901994EF92FF920F931F93DC01ED9183
:1020D000FC9100A0F1A1E02D19951F910F91FF90A7
:1020E000EF9008950F931F93DC01ED91FC91068C06
:1020F000F78DE02D19951F910F9108950F931F9360
:10210000DC01ED91FC91048CF58DE02D19951F916A
:102110000F910895DC01ED91FC910084F185E02D93
:1021200019943F924F925F926F927F928F929F92FB
:10213000AF92BF92CF92DF92EF92FF920F931F93D5
:10214000CF93DF935C017B014A016901390187E08C
:10215000680E711C93E0759467949A95E1F72B01D2
:10216000400E511E10E000E0312CD0E0C0E0CE0166
:1021700087709927330C892B59F4FE0183E0F5957C
:10218000E7958A95E1F7E00FF11FE80DF91D34900E
:1021900037FE0AC021E030E0A701B5016C0F7D1FBA
:1021A0008CE499E00E948A102196CC16DD06F9F69F
:1021B0008FEFE81AF80A060D171DE414F504A9F6C6
:1021C000DF91CF911F910F91FF90EF90DF90CF9013
:1021D000BF90AF909F908F907F906F905F904F9047
:1021E0003F9008952F923F924F925F926F927F920D
:1021F0008F929F92AF92BF92CF92DF92EF92FF9217
:102200000F931F93CF93DF9300D000D0CDB7DEB7ED
:102210003C016A013E832D83FC82EB825801A41AA3
:10222000B50AB7FE03C0B194A194B1088D809E8019
:10223000861A970A97FE03C09194819491088A1494
:102240009B045CF0902F812F0D811E819D838E83D6
:102250009C2D8D2D6B01692F782F0C151D055CF0C1
:102260009D818E817E836D83692F782F902F812FA2
:102270008601C92ED82E1601201A310A2B012D8174
:102280003E81421A530A57FE03C0519441945108AB
:10229000710137FE03C03FEFE31AF30AF594E794A8
:1022A0008D819E81861797075CF5A1E0B0E0BA8327
:1022B000A983C016D1064CF1D301ED91FC910484A1
:1022C000F585E02D2B813C81A8016D817E818A14EA
:1022D0009B041CF04D815E81B801C3011995E4187F
:1022E000F508F7FE0AC02D813E8189819A81280F69
:1022F000391F3E832D83E20CF31C0F5F1F4FD9CF94
:102300002FEF3FEF3A832983D4CF26960FB6F89468
:10231000DEBF0FBECDBFDF91CF911F910F91FF9018
:10232000EF90DF90CF90BF90AF909F908F907F9075
:102330006F905F904F903F902F900895EF92FF9293
:102340000F931F93CF93DF93EC01EC80FD806E150C
:102350007F050CF070C057FF04C0240F351F50E0FC
:1023600040E08E819F81FA01E20FF31F8E179F07D5
:102370001CF49C01241B350B121613060CF05BC0D9
:10238000922F842F8695869586958E9DD0018F9D60
:10239000B00D11246A0F7B1FAF8DB8A1A60FB71F18
:1023A000477049F188E0841B482F682F70E0FB01DB
:1023B000E05BFD4FE491281708F063C0621B7109D0
:1023C0002FEF30E002C0359527956A95E2F7E223BA
:1023D0000130110539F0B0F10230110561F58C9131
:1023E000E82702C08C91E82BEC93941720F12C8104
:1023F0003D81A20FB31FE92FE41BE83078F00230D3
:10240000110521F58E2F9C9190959C932C813D81F7
:10241000A20FB31F88508830B0F7E770EE2359F051
:10242000F0E0E85BFD4FE49101301105F9F010F1A7
:102430000230110519F1DF91CF911F910F91FF909B
:10244000EF900895E0958C91E823CECF81E00115BF
:10245000110509F480E081959E2F8C932C813D819C
:10246000A20FB31F98509830C0F7D7CF8C91E82BAC
:10247000EC93E1CFE0958C91E823FACF8C91E8279B
:10248000F7CF0130110509F4ADCFE0F202301105AC
:1024900009F4A5CFAE0DBF1DAECF0F931F93CF9301
:1024A000DF9377FF04C0260F371F70E060E0DC0188
:1024B0001496CD91DC91FB01E20FF31FCE17DF07DD
:1024C0001CF49E01261B370B121613064CF5FA015D
:1024D00057FD3796A3E0F595E795AA95E1F7EC9FB0
:1024E000D001ED9FB00DFC9FB00D11246A0F7B1F32
:1024F000DC015F96ED91FC91E60FF71F47705527C1
:1025000081E090E001C0880F4A95EAF7482F01303A
:10251000110559F0A8F02E0F3F1F02301105E1F010
:10252000DF91CF911F910F9108952E0F3F1FE2175A
:10253000F307B1F38191DF011197842B8C93F7CFCF
:1025400080952E0F3F1FE217F30751F39191DF01A2
:10255000119798239C93F7CFE217F30709F3819122
:10256000DF01119784278C93F7CF0F931F93FA0104
:10257000DC0156964C9156974230E9F04330A1F178
:10258000413061F514964D915C91DA01AE1BBF0BA1
:10259000FD01E21BF30B77FD0BC0DC0116964D919C
:1025A0005C916417750724F4AB01BF010E944D12C2
:1025B0001F910F91089514964D915C91DA01A61B1D
:1025C000B70BBD0161507109DC0116964D915C910C
:1025D000DA01AE1BBF0BFD01E21BF30B77FDE8CF69
:1025E000AF010E949E11E4CF16964D915C91DA01E5
:1025F000A61BB70BBD0161507109CDCF0F931F937F
:10260000FA01DC0156964C9156974230A9F04330BE
:1026100091F1413019F514964D915C91DA01AE1BA0
:10262000BF0BFD013197F7FD04C0AB01BF010E9454
:102630009E111F910F91089514964D915C91DA01AE
:10264000A61BB70BBD01DC0116964D915C91DA011A
:10265000AE1BBF0BFD013197621B730BF7FDE9CF7A
:10266000DC0116964D915C91E417F50714F7AF0164
:102670000E944D12DECF16964D915C91DA01A61B99
:10268000B70BBD01621B730BCECFFC0177FD64C09D
:1026900080859185681779070CF05EC057FD5CC096
:1026A00082859385481759070CF056C08689823079
:1026B000B1F0833029F1813041F484819581841B0C
:1026C000950BAB01BC01615071092130310509F155
:1026D00008F443C02230310509F463C008958481B1
:1026E0009581DC01A61BB70BBD0161507109868184
:1026F0009781DC01A41BB50BAD0141505109E5CF19
:1027000086819781861B970BBA01AC014150510914
:10271000DCCFCA0157FD0796A3E095958795AA954A
:10272000E1F7A481B5818A9F90018B9F300D9A9F1C
:10273000300D1124620F731F078CF0A1E02DE60FFE
:10274000F71F4770552721E030E001C0220F4A955E
:10275000EAF78081822B80830895CA0157FD07968E
:1027600033E0959587953A95E1F7A481B5818A9FE5
:1027700090018B9F300D9A9F300D1124620F731FB3
:10278000078CF0A1E02DE60FF71F4770552781E079
:1027900090E001C0880F4A95EAF7809590818923DF
:1027A000DACFCA0157FD079623E0959587952A95BC
:1027B000E1F7A481B5818A9F90018B9F300D9A9F8C
:1027C000300D1124620F731F078CF0A1E02DE60F6E
:1027D000F71F4770552721E030E001C0220F4A95CE
:1027E000EAF780818227B7CF08958EBD00000DB42F
:1027F00007FEFDCF8EB50895EF92FF920F931F93C2
:10280000CF93DF937C01C62F8091690990916A096B
:10281000009709F459C020916D0931E030932C08DC
:1028200020932B0810922A0810922908DC01ED91C0
:10283000FC910190F081E02D60E019958701EE2474
:10284000E394F12CD1E0C1508091690990916A091B
:10285000CF3F91F1B0E2EB16F104D8F00E94C30A29
:102860008091690990916A0920916D09D0932C0893
:1028700020932B0810922A0810922908DC01ED9170
:10288000FC910190F081E02D60E01995EE24E39435
:10289000F12C8091690990916A09F8016491DC0139
:1028A000ED91FC910190F081E02D1995BFEFEB1AAD
:1028B000FB0A0F5F1F4FC7CFDF91CF911F910F9181
:1028C000FF90EF900C94C30AE0917909F0917A0996
:1028D000908180917F098095892380838701C150F1
:1028E00008F438C0F8018491209167093091680993
:1028F000232B29F00E94F5130F5F1F4FF0CF28E024
:1029000030E040E8E0917509F091760990917D09F9
:10291000582F5423D9F05081952B9083E09177095B
:10292000F0917809908150917E09952B9083E091E8
:102930007709F0917809508190917E0990959523BF
:102940009083469521503109E9F6D6CF5081909574
:102950009523E3CFDF91CF911F910F91FF90EF90DF
:1029600008951F93CF93DF93EC018D8D9E8D00977B
:1029700021F1162F29A131E030932C0820932B0848
:1029800010922A0810922908DC01ED91FC91019027
:10299000F081E02D60E019958D8D9E8DDC01ED912B
:1029A000FC910190F081E02D612F19958D8D9E8D08
:1029B000DF91CF911F910C94C30AADA5BEA59C9148
:1029C0008BA9809589238C938B8D9C8D892B31F0DD
:1029D000862FDF91CF911F910C94F51328E030E002
:1029E00080E8A9A5BAA599A9462F4823C1F04C9122
:1029F000942B9C93ABA5BCA59C914AA9942B9C932A
:102A0000ABA5BCA54C919AA9909594239C938695CF
:102A10002150310931F7DF91CF911F9108954C91E9
:102A200090959423E6CF8CBD9DBD08951F93CF93C1
:102A3000DF93EC01162F8D8D9E8D892BB1F12DA981
:102A40003EA94FA958AD60E074E284EF90E00E9487
:102A5000BA2C2051310941095109569547953795AE
:102A600027952093B80066EA111167EACE010E940B
:102A7000B1148D8D9E8D892B41F129AD3AAD4BADB1
:102A80005CAD60E074E284EF90E00E94BA2C2051CB
:102A90003109410951095695479537952795209356
:102AA000B800DF91CF911F9108958B8D9C8D892B5C
:102AB00021F08EAD9FAD0E941315EFA5F8A990816E
:102AC0008CA9809589238083CECFEFA5F8A980813A
:102AD0009CA9892B8083E5CF089590E080E008953C
:102AE00061E080E099E00C94CE0661E080E092E045
:102AF0000C94CE06FC0113821282089561E082E1FB
:102B000099E00C94CE06DC011296ED91FC91E55F04
:102B1000FD4F2081203349F421E32083DC01ED9136
:102B2000FC910684F785E02D1994213311F428E7F0
:102B3000F4CF20E3F2CF61E086E199E00C94CE0679
:102B400080911B0290911C029C0197FF02C02F5F95
:102B50003F4F35952795E1E0F0E0AF01022E02C02E
:102B6000440F551F0A94E2F750930A02409309025A
:102B700062E070E00E94A62C280F391F02C0EE0F01
:102B8000FF1F2A95E2F7F0930802E09307020895E9
:102B9000FC01108A61E082E199E00C94CE06FC0110
:102BA000138212820895DC0112962C91129731E063
:102BB000232712962C931297ED91FC910684F785AA
:102BC000E02D199461E080EF98E00C94CE0621E0AE
:102BD000FC0122830895FC01168661E086ED98E0F1
:102BE0000C94CE06DC011E961C921E9790916807ED
:102BF000992319F0915090936807ED91FC911197EA
:102C00000684F785E02DCD011994FC01168661E05C
:102C100080E099E00C94CE06FC01168610926807BD
:102C20000895DC0155961C9255971796ED91FC91ED
:102C3000E80FF91F2281203349F421E32283DC01CC
:102C4000ED91FC910684F785E02D1994213311F460
:102C500028E7F4CF20E3F2CFFC01158A60E080EF93
:102C600098E00C94CE06DC0118961C921E921797E1
:102C700020911B0230911C02FC01329650E040E092
:102C800060E34217530724F461934F5F5F4FF9CF1E
:102C9000280F391FF9011282DC01ED91FC910684A5
:102CA000F785E02D19941F93CF93DF939A0121505C
:102CB0003109FB01A0E3B1E337FD10C0EC01022EA6
:102CC00002C0D595C7950A94E2F7C0FF05C0B0834E
:102CD000215031093196F0CFA083FACF640F751FD0
:102CE000FB011082DF91CF911F910895FC012FB756
:102CF000F8948091210890912208A0912308B09126
:102D000024082FBF84839583A683B7838087918708
:102D1000A287B387158681E084870895FC018485A6
:102D2000882319F12FB7F8948091210890912208F7
:102D3000A0912308B09124082FBF80879187A28794
:102D4000B3874481558166817781841B950BA60BDF
:102D5000B70B408151816281738184179507A60763
:102D6000B70718F081E0858714860895CF93DF9325
:102D7000EC0104960E948E168989882359F0198ADD
:102D8000188AE881F9810684F785E02DCE01DF916C
:102D9000CF911994DF91CF910895CF93DF93EC01F8
:102DA00002960E948E168F85882359F01F861E86F4
:102DB000E881F9810684F785E02DCE01DF91CF917E
:102DC0001994DF91CF910895CF93DF93EC01099689
:102DD0000E948E168E89882359F01E8A1D8AE881EA
:102DE000F9810684F785E02DCE01DF91CF9119940A
:102DF000DF91CF910895CF93DF93EC0189810E94F9
:102E00006207892B21F01B86DF91CF9108958B8576
:102E1000811111C02FB7F894809121089091220858
:102E2000A0912308B09124082FBF8B839C83AD838E
:102E3000BE8381E08B872FB7F89480912108909111
:102E40002208A0912308B09124082FBF8F83988770
:102E5000A987BA874B815C816D817E81841B950B2C
:102E6000A60BB70B86399105A105B10568F281E083
:102E70008883CACFCF93DF93EC01FA0188819981CF
:102E8000860F971F281739078CF4821B930B019725
:102E9000241B350BB9016F5F7F4F0E94A62C8E0F4C
:102EA0009F1F99838883DF91CF9108958417950799
:102EB000C4F7481B590BCA010197B9016E1B7F0B60
:102EC0006F5F7F4F0E94A62CA901481B590BCA01B6
:102ED000E8CFCF93DF93EC0124E030E041E050E015
:102EE00061E070E002960E943A17E881F981068459
:102EF000F785E02DCE01DF91CF911994CF93DF9329
:102F0000EC0121E030E000901B0202C0220F331FD1
:102F10000A94E2F72150310950E040E061E070E0AE
:102F200002960E943A17E881F9810684F785E02D20
:102F3000CE01DF91CF911994CF93DF93EC0124E080
:102F400030E042E050E06FEF7FEF8BE192E00E94D3
:102F50003A17E881F9810684F785E02DCE01DF91EB
:102F6000CF911994CF93DF93EC01188A21E030E0E0
:102F700000901B0202C0220F331F0A94E2F7215077
:102F8000310950E040E061E070E002960E943A179B
:102F9000E881F9810684F785E02DCE01DF91CF919C
:102FA0001994CF93DF93EC011D8A20911B0230917D
:102FB0001C022150310950E040E061E070E00796CA
:102FC0000E943A17E881F9810684F785E02DCE0149
:102FD000DF91CF9119942091520930915309C90181
:102FE000079697FD079623E0959587952A95E1F733
:102FF0002091500930915109829FA001839F500D6B
:10300000929F500D112470E060E080916B099091C7
:103010006C090C94222EDF92EF92FF920F931F9374
:10302000CF93DF93EC010E94EB1710925909109295
:10303000580910925B0910925A09FE010190002074
:10304000E9F73197AF014C1B5D0BBE018CE499E0B1
:103050000E94A4088091690990916A09892B09F45A
:1030600098C0209181093091820940918309509143
:10307000840960E074E284EF90E00E94BA2C205151
:103080003109410951095695479537952795209360
:10309000B80065E08AE29DE00E94FC13609150094F
:1030A00061508CE499E00E94B11420915209309152
:1030B0005309C901079697FD079633E095958795C3
:1030C0003A95E1F72091500930915109829F800192
:1030D000839F100D929F100D1124C0916B09D09108
:1030E0006C098091690990916A090C0F1D1F009766
:1030F00009F48FC020916D0931E030932C082093A2
:103100002B0810922A0810922908DC01ED91FC91FD
:103110000190F081E02D60E41995EE24E394F12C08
:10312000DD24D3948091690990916A090C171D07D9
:1031300009F446C0B0E2EB16F104D8F00E94C30ACD
:103140008091690990916A0920916D09D0922C08AB
:1031500020932B0810922A0810922908DC01ED9187
:10316000FC910190F081E02D60E41995EE24E39448
:10317000F12C8091690990916A096991DC01ED91C6
:10318000FC910190F081E02D1995BFEFEB1AFB0A3D
:10319000C9CF8091670990916809892B31F080919E
:1031A0008A0990918B090E941315E0917B09F09197
:1031B0007C0990818091800980958923808369CFE3
:1031C0000E94C30A8091690990916A09892B09F4C8
:1031D00061C02091850930918609409187095091FD
:1031E000880960E074E284EF90E00E94BA2C2051DC
:1031F00031094109510956954795379527952093EF
:10320000B800DF91CF911F910F91FF90EF90DF9069
:103210000895E0917909F0917A09808190917F0970
:10322000892B80830C171D0769F28991209167090A
:1032300030916809232B19F00E94F513F3CF28E091
:1032400030E040E8E0917509F091760990917D09B0
:10325000582F5423D9F05081952B9083E091770912
:10326000F0917809908150917E09952B9083E0919F
:103270007709F0917809508190917E099095952376
:103280009083469521503109E9F6CCCF5081909535
:103290009523E3CFE0917B09F0917C0980819091A7
:1032A0008009892B8083ADCFFC018281938182309C
:1032B000910599F02CF4009749F0019759F0089581
:1032C0008330910569F0049771F0089587E593E0E4
:1032D0000C940B1881E793E0FBCF8FE993E0F8CFD4
:1032E00083EC93E0F5CF8AEE93E0F2CF0E941D2E9F
:1032F00085ED8093BC008091AA079091AB07A091C7
:10330000AC07B091AD070796A11DB11D23E0B6959E
:10331000A795979587952A95D1F72091BC0024FD14
:1033200003C01092F30708954091AA075091AB078C
:103330006091AC077091AD07452B462B472B69F385
:103340000097A105B10541F02AE22A95F1F700C0E6
:103350000197A109B109E1CF8091A9070C941D0A39
:103360000F931F93CF93DF93CDB7DEB7C85CD1091E
:103370000FB6F894DEBF0FBECDBF1A821982FE01D0
:10338000339686ECDF011D928A95E9F780911C0245
:103390008F9380911B028F938BE094E09F938F9388
:1033A0008E010F5F1F4F1F930F930E94542EC80171
:1033B0000E940B180F900F900F900F900F900F908E
:1033C000C853DF4F0FB6F894DEBF0FBECDBFDF91FD
:1033D000CF911F910F9108959F92AF92BF92CF927C
:1033E000DF92EF92FF920F931F93CF93DF93CDB7AE
:1033F000DEB7C05FD1090FB6F894DEBF0FBECDBFF8
:103400005C018E0107531F4FF8011192119282E166
:10341000DF011D928A95E9F76501B2E0CB0ED11C60
:103420008BE3E82E84E0F82E20911B0230911C02E1
:10343000C7018B539440821793070CF5F6019190C6
:103440006F0180ED890D8230A0F441E050E0B701BA
:10345000C8010E94442EF0E360E474E09F1611F06E
:1034600063E474E0C8010E94292E8FEFE81AF80A7D
:10347000DBCF65E177E0C8010E94292EF1CF7E0104
:103480009DEDE90EF11CF7011192119282E1DF012D
:103490001D928A95E9F7D12CC12CF5018781908581
:1034A000C816D9064CF462E474E0C7010E94292EC4
:1034B000FFEFCF1ADF0AF1CF65E474E0C7010E9485
:1034C000292E1A821982FE01339686ECDF011D92A5
:1034D0008A95E9F7FF92EF921F930F9387E494E0A8
:1034E0009F938F938E010F5F1F4F1F930F930E9427
:1034F000542EC8010E940B180FB6F894DEBF0FBE01
:10350000CDBFC051DF4F0FB6F894DEBF0FBECDBFA9
:10351000DF91CF911F910F91FF90EF90DF90CF90AF
:10352000BF90AF909F900895282FCB016DE474E079
:10353000203331F063E574E0213311F068E574E085
:103540000C94292E9F92AF92BF92CF92DF92EF926E
:10355000FF920F931F93CF93DF93CDB7DEB7C65E75
:10356000D1090FB6F894DEBF0FBECDBF5C018E014E
:1035700003521F4FF8011192119283E0982EDF0140
:10358000892D1D928A95E9F7C0901B02D0901C02EC
:10359000A6016BE374E0C8010E94442E7E0192EE06
:1035A000E90EF11CF70111921192DF011D929A941C
:1035B000E9F7A601B701F501828193810E945316B4
:1035C0006E01F9ECCF0ED11CF6011192119282E13D
:1035D000DF011D928A95E9F7D5011296ED91FC91D4
:1035E000E55FFD4FB60180810E94941A1A8219820C
:1035F000FE01339686ECDF011D928A95E9F7DF9292
:10360000CF92F5018281938101969F938F93FF92D0
:10361000EF921F930F9383E694E09F938F930C5D3B
:1036200011091F930F930E94542EC8010E940B187A
:103630000FB6F894DEBF0FBECDBFCA51DF4F0FB635
:10364000F894DEBF0FBECDBFDF91CF911F910F91D8
:10365000FF90EF90DF90CF90BF90AF909F90089534
:103660008F929F92AF92BF92CF92DF92EF92FF9292
:103670000F931F93CF93DF93CDB7DEB7C05FD10910
:103680000FB6F894DEBF0FBECDBF5C017B018A018F
:10369000922E1A821982FE01339686ECDF011D926A
:1036A0008A95E9F76B01CC0CDD1CCC0CDD1CC40E3B
:1036B000D51EF601E158FD4F80810E94B907882E82
:1036C000F601E159FD4F80810E94B907E1E3DE2E4A
:1036D000811006C0F8E7DF2E811102C070E3D72EFB
:1036E0008091070290910802E816F9063CF42091B7
:1036F000090230910A0202171307C4F1B0E3DB1686
:1037000009F4AFC04E01E9EC8E0E911CF401119248
:10371000119282E1DF011D928A95E9F7B4018D2DA6
:103720000E94941A9F928F920F5F1F4F1F930F93C7
:10373000BFEFEB1AFB0AFF92EF9280E794E09F93B2
:103740008F938E010F5F1F4F1F930F930E94542E74
:10375000C8010E940B18C50104960E9476160FB688
:10376000F894DEBF0FBECDBF912C3BC0C70195952D
:103770008795E826F926E29EA001E39E500DF29E71
:10378000500D1124C8019595879508271927040F16
:10379000151FF801E55FFD4F8081D81237C09920D1
:1037A00009F45FC0D50112968D919C9101969F936B
:1037B0008F9388EA94E09F938F938E010F5F1F4F42
:1037C0001F930F930E94542EC8010E940B18C5012D
:1037D00004960E9476160F900F900F900F900F9006
:1037E0000F90892DC051DF4F0FB6F894DEBF0FBE8A
:1037F000CDBFDF91CF911F910F91FF90EF90DF90A0
:10380000CF90BF90AF909F908F9008957E01B9ECBC
:10381000EB0EF11CF7011192119292E1C92EDF011A
:103820009C2D1D929A95E9F7B7010E94941A4E01BA
:10383000ADED8A0E911CF40111921192DF011D92DF
:10384000CA94E9F7B4018D2D0E94941A9F928F9229
:10385000FF92EF920F5F1F4F1F930F938BEB94E03C
:103860006ECF99249394BDCFEF92FF920F931F9345
:10387000CF93DF937C01FC01108AD0E0C0E010E020
:1038800000E020E0A801BE01C7010E94301B882390
:10389000A1F00F5F1F4F0430110599F72196C43036
:1038A000D10569F761E080EF98E0DF91CF911F913A
:1038B0000F91FF90EF900C94CE06DF91CF911F9166
:1038C0000F91FF90EF900895FC01108A82819381FF
:1038D0006091090270910A020E94A62C21E0AC01BD
:1038E000CF010C94301BEF92FF920F931F93CF9355
:1038F000DF93CDB7DEB7CC5DD1090FB6F894DEBF4C
:103900000FBECDBF7C018E0107531F4FF8011192EE
:10391000119282E1DF011D928A95E9F7D701129693
:10392000ED91FC91E55FFD4FB80180810E94941AF2
:103930001A821982FE01339686ECDF011D928A9568
:10394000E9F780911C028F9380911B028F931F9344
:103950000F93F7018281938101969F938F9380EF5C
:1039600094E09F938F93085C11091F930F930E941B
:10397000542EC8010E940B180FB6F894DEBF0FBE7C
:10398000CDBFC452DF4F0FB6F894DEBF0FBECDBF20
:10399000DF91CF911F910F91FF90EF9008953F928B
:1039A0004F925F926F927F928F929F92AF92BF924F
:1039B000CF92DF92EF92FF920F931F93CF93DF93FB
:1039C00000D01F921F92CDB7DEB74C017A01322E84
:1039D00085E0EBE3F4E0DE01119601900D928A950B
:1039E000E1F78B01D12CC12C2B0180E5480E511C35
:1039F000F20180818C151D0409F00CF444C0B12C37
:103A0000A12CA814B90424F538016A0C7B1CF3011D
:103A10008081883741F465E177E0311015C0FFEF10
:103A2000AF1ABF0AEECF41E050E061E070E06C0FEA
:103A30007D1F6A0D7B1DC7010E94442EF30180810A
:103A4000803369F760E474E0C7010E94292EE7CF54
:103A5000F20180818150990BC816D90674F46BE18C
:103A600075E0C7010E94292E6CEE76E0C0FC02C012
:103A700063E474E0C7010E94292EFFEFCF1ADF0A2A
:103A80000B5F1F4FB5CF0F900F900F900F900F90BF
:103A9000DF91CF911F910F91FF90EF90DF90CF902A
:103AA000BF90AF909F908F907F906F905F904F905E
:103AB0003F9008950F931F93CF93DF93CDB7DEB759
:103AC000C85CD1090FB6F894DEBF0FBECDBF1A8215
:103AD0001982FE01339686ECDF011D928A95E9F783
:103AE00080911B0290911C02209168078E010F5F4C
:103AF0001F4F2223A9F021E0A80168E177E00E948E
:103B0000CF1CC8010E940B18C853DF4F0FB6F894A2
:103B1000DEBF0FBECDBFDF91CF911F910F910895F2
:103B20009F938F938EE195E09F938F931F930F93B5
:103B30000E94542E0F900F900F900F900F900F90A7
:103B4000E0CF2F923F924F925F926F927F928F922F
:103B50009F92AF92BF92CF92DF92EF92FF920F931C
:103B60001F93CF93DF9300D000D01F92CDB7DEB765
:103B70002B01FC01E05FFA4F208131813B832A83D6
:103B8000E05CF440FF83EE83312C212C9B01205B11
:103B90003F4F3D832C838A819B81281639060CF088
:103BA0003FC0EE81FF810081EC81FD81808108139F
:103BB0002DC0EE80FF80F0E5EF1AF108712C612C2A
:103BC00010E05801601671060CF044C06201912C9F
:103BD000812C19828A149B047CF4B601C7010E94CF
:103BE000342E892B11F421E029833FEF831A930AA5
:103BF00085E0C80ED11CEECF95E0E90EF11CE981FD
:103C0000EE2321F0FFEF6F1A7F0ADCCF2FEF221A8D
:103C1000320A8E819F818F5A9F4F9F838E83BBCFA5
:103C200080E027960FB6F894DEBF0FBECDBFDF91C0
:103C3000CF911F910F91FF90EF90DF90CF90BF90A9
:103C4000AF909F908F907F906F905F904F903F903C
:103C50002F90089581E0E5CF0F931F93CF93DF93CB
:103C6000EC011D8A8C010E5F1F4FB80182E092E0CB
:103C70000E94342E892BC9F48091680725E0829F29
:103C8000C0011124B801885E984F0E943D2E80919A
:103C900068078F5F8093680760E080EF98E0DF91AE
:103CA000CF911F910F910C94CE0687E695E00E946C
:103CB0000B18CE010996DF91CF911F910F910C94B3
:103CC00076162F923F924F925F926F927F928F92D1
:103CD0009F92AF92BF92CF92DF92EF92FF920F939B
:103CE0001F93CF93DF93CDB7DEB7C55DD1090FB674
:103CF000F894DEBF0FBECDBF2B011E0123EA220EBA
:103D0000311CDB01A056BF4FC253DF4FB983A883DC
:103D1000CE5CD0408C559F4FCC52DF4F9983888327
:103D2000C45DD0404E01B3EC8B0E911C82EAFE01C3
:103D30003196DF011D928A95E9F780E2F101119237
:103D40008A95E9F7C453DF4F59824882CC5CD04052
:103D5000C653DF4F39822882CA5CD0408201B12C21
:103D6000A12CC853DF4F1882C85CD040C253DF4F2C
:103D7000A881B981CE5CD0406D907C90A614B70428
:103D80000CF0D0C0BFEFAB1ABB0AF8013596CE528B
:103D9000DF4FF983E883C25DD0403F016501C25324
:103DA000DF4FA881B981CE5CD0408D919C91C8161F
:103DB000D906A4F0C653DF4FE881F981CA5CD04030
:103DC0003196C653DF4FF983E883CA5CD040CE52A8
:103DD000DF4F08811981C25DD040C8CFCC52DF4F80
:103DE000A881B981C45DD0408D919C91D801F30127
:103DF0009D01201B310B281739074CF42D912837D2
:103E000021F02081283709F435C13196F1CFF8012E
:103E100030E020E0AF01401B510B481759073CF43C
:103E2000220F331F41914133A9F72160F3CFF301F2
:103E3000F12CE12CAF01461957094817590744F4F2
:103E4000EE0CFF1C41914133A9F76894E0F8F2CFE2
:103E5000E216F30609F40EC1E226F326970121507B
:103E60003109E222F322E114F10409F003C1F40163
:103E700025E011922A95E9F7B3019801F401AF0109
:103E8000481959094817590774F4D9014D919D01F2
:103E9000DB015D91BD01451721F0B8E7B083319694
:103EA000EECF4083FCCF880D991DFC011082CF55C9
:103EB000DF4F28813981C15AD040C053DF4F398349
:103EC0002883C05DD040CE010196C853DF4F99834F
:103ED0008883C85CD040C053DF4FA881B981C05DE2
:103EE000D040EA16FB060CF090C0C853DF4F688143
:103EF0007981C85CD040C4010E94342EC853DF4F82
:103F0000E881F981C85CD0403596C853DF4FF9830A
:103F1000E883C85CD040892B09F499C0FFEFEF1A01
:103F2000FF0AD9CF61018201C60182199309861562
:103F300097057CF5D6018D916D018111C4C0CF55D7
:103F4000DF4FE881F981C15AD040C653DF4FF98372
:103F5000E883CA5CD0409E012F5F3F4F7901B12CAE
:103F6000A12CC653DF4F88819981CA5CD040A81626
:103F7000B9060CF086C0B701C8010E94342EA5E036
:103F8000EA0EF11C892B09F49EC0BFEFAB1ABB0AE5
:103F9000E8CFC853DF4FE881C85CD040EE2309F476
:103FA00095C08E010F5F1F4FF12CE12CCF55DF4FD5
:103FB00088819981C15AD040E816F906ECF4B8011D
:103FC000C453DF4F88819981CC5CD0400E943D2E44
:103FD000FFEFEF1AFF0AC453DF4F28813981CC5C11
:103FE000D0402B5F3F4FC453DF4F39832883CC5CD5
:103FF000D0400B5F1F4FDACFC253DF4FA881B9818A
:10400000CE5CD0408D939C9391CE25E0C053DF4F82
:10401000E881F981C05DD0402E9FC0012F9F900D97
:104020001124B401A1E0B0E0AC0FBD1F8A0F9B1FAB
:104030000E943D2ECF55DF4F88819981C15AD040D3
:104040000196CF55DF4F99838883C15AD040E1E074
:10405000C653DF4FA881B981CA5CD040EC93F1010F
:10406000EC0DFD1D21E0208331E0C853DF4F388384
:10407000C85CD0404FEFC41AD40A85E0680E711CAA
:104080008ECE25E0C653DF4FE881F981CA5CD0406F
:104090002E9FC0012F9F900D1124B801A1E0B0E028
:1040A000AC0FBD1F8A0F9B1F0E943D2ECF55DF4FC7
:1040B00088819981C15AD0400196CF55DF4F9983AD
:1040C0008883C15AD0400B5F1F4F2ECFCB52DF4F9A
:1040D0000FB6F894DEBF0FBECDBFDF91CF911F9119
:1040E0000F91FF90EF90DF90CF90BF90AF909F9097
:1040F0008F907F906F905F904F903F902F9008959A
:104100002F923F924F925F926F927F928F929F92E7
:10411000AF92BF92CF92DF92EF92FF920F931F93D5
:10412000CF93DF93CDB7DEB7C65AD1090FB6F89457
:10413000DEBF0FBECDBF7C01342E252E80E5F701FA
:10414000282F11922A95E9F7470190E5890E911CD5
:10415000F40110823701F1E56F0E711CF301119229
:104160008A95E9F7C7018F559F4FCD55DF4F99834A
:104170008883C35AD040FC011082319660837183DA
:104180003296408351838E010F5F1F4F82EAF80100
:1041900011928A95E9F781E090E02C0102C0440C6D
:1041A000551C4A95E2F76B01B12CA12CA414B5045F
:1041B0000CF04DC0CB55DF4FD982C882C55AD040D4
:1041C000F6018081813311F0883701F5CF55DF4F3B
:1041D00088819981C15AD040F5E0F89FB001F99FDC
:1041E000700D1124600F711F432D522DC5010E94C7
:1041F0005316CF55DF4F88819981C15AD04001961F
:10420000CF55DF4F99838883C15AD0402FEFC21A10
:10421000D20ACB55DF4FE881F981C55AD040808161
:10422000813389F4F4018081B701F5E08F9F600D3F
:10423000711D1124432D522DC5010E945316F40106
:1042400080818F5F8083FFEFAF1ABF0AAFCFB801C5
:10425000C7010E94611EF12CE12CCF55DF4F8881F0
:104260009981C15AD040E816F9066CF4B801C3012F
:104270000E943D2E2FEFE21AF20A85E0680E711CB3
:104280000B5F1F4FEACFCD55DF4FE881F981C35A4D
:10429000D0408083CA55DF4F0FB6F894DEBF0FBE03
:1042A000CDBFDF91CF911F910F91FF90EF90DF90E5
:1042B000CF90BF90AF909F908F907F906F905F90C6
:1042C0004F903F902F9008953F924F925F926F9240
:1042D0007F928F929F92AF92BF92CF92DF92EF9296
:1042E000FF920F931F93CF93DF93CDB7DEB7CE5DD1
:1042F000D1090FB6F894DEBF0FBECDBF8C010E5FA3
:104300001F4FDC011E961C922091680781E090E00F
:1043100000901B0202C0880F991F0A94E2F7281729
:10432000190601F58CE895E00E940B18C8010E945F
:104330007616C252DF4F0FB6F894DEBF0FBECDBF68
:10434000DF91CF911F910F91FF90EF90DF90CF9071
:10435000BF90AF909F908F907F906F905F904F90A5
:104360003F90089557E4E52E52E0F52EFE01E95501
:10437000FF4F6F01D7018D917D010E94B907F601B2
:1043800081936F01FFE6EF16F2E0FF0699F780E1F7
:10439000E3E2F2E0DE01A153BF4F01900D928A9556
:1043A000E1F72091090230910A0280910702909171
:1043B0000802289F3001299F700C389F700C11242F
:1043C000F12CE12C88248A94982CCC24CA94DC2CDF
:1043D000EFEFFFEFAA24AA94BA2C49E0542EE6147A
:1043E000F7043CF5C701B9010E94A62CAC01569E0A
:1043F000C001579E900D1124840F951FA7EAB0E0CD
:10440000AC0FBD1FA80FB91F19964C9119971496A0
:104410009C91149715968C9115975C91552309F4EE
:1044200008C1992309F400C1B7FCFDC088ED95E0EF
:104430007BCF5FEFA516B50659F0EF3FFE0741F0C1
:104440007FEFC716D70621F08FEF8816980619F46C
:1044500084EF95E069CFC501B9010E94A62C7B01CC
:104460005C01CF01B9010E94A62C2B01FC018A1925
:104470009B09AC014F5F5F4F141615060CF086C008
:1044800084239523892B09F081C03701C601B90126
:104490000E94A62C6B01CB018E199F09AC014F5FC6
:1044A0005F4F141615060CF071C084239523892BD9
:1044B00009F06CC04E145F0409F0B8CFC401B90113
:1044C0000E94A62C8E179F0709F0B0CF6C157D05B2
:1044D00009F0ACCF49E04E9DB0014F9D700D112405
:1044E0004C9DC0014D9D900D1124DC01AA0DBB1DFA
:1044F00057EA452E512C4C0E5D1E4A0E5B1EA7EA54
:104500008A2E912C8C0E9D1E880E991EA201481990
:104510005909E417F507ECF5CF01860F971FA7EAB5
:10452000B0E0AC0FBD1F8A0F9B1FA701C416D506B4
:104530000CF043C02E9DC0012F9D900D3E9D900D0F
:1045400011244FEC442E512C4C0E5D1E480E591E6A
:1045500050E040E0BC01655F7D4F4B01C614D704BD
:104560000CF449C0B401640F751F7201E40EF51E0E
:10457000C501E817F907CCF1DB01A80FB91F3C9082
:10458000A0E33A122CC08AE696E0CECE86E196E011
:10459000CBCEA201481B590B460F571FDA014C9195
:1045A000442341F0BFEF4B1A5B0AD20118964C919D
:1045B0004111ACCF88E496E0B7CEDC01AE1BBF0B57
:1045C000AA0DBB1D14966C916623A1F30996DC011C
:1045D00014976C91662371F34F5F5F4FA7CFD7019C
:1045E000A80FB91F3C920196C4CFBFEF6B1A7B0A8C
:1045F000420F531FB3CF40911B0250911C02BE01CA
:1046000061537F4FCE0101960E948020BE016E5AF9
:104610007F4F82E092E00E943D2E61E089ED98E0BC
:104620000E94CE0686CE5701882319F0F7FFFECEF2
:10463000F701442351F0992319F0D7FEF7CE670113
:10464000882319F097FEF2CE47014FEFE41AF40ADF
:10465000C6CE2F923F924F925F926F927F928F922F
:104660009F92AF92BF92CF92DF92EF92FF920F9301
:104670001F93CF93DF93CDB7DEB7C755D1090FB6E0
:10468000F894DEBF0FBECDBF7C016A01590138012D
:10469000FC01EE5EFA4F0190F081E02DE05BFF4FF0
:1046A00080818617170609F44AC0C901880F991F2F
:1046B0009A01280F391F64963FAF2EAF64974B01C4
:1046C000B4E0880C991CBA95E1F7800E911E240184
:1046D000C7018C5E9A4F66969FAF8EAF6697D501E5
:1046E00011966896BFAFAEAF68971B01BFEF2B1A4C
:1046F0003B0AC201881999096696AEADBFAD6697AF
:10470000ED91FC91E05BFF4F20812817190609F01D
:104710000CF4ABC0F20121912F01222351F3F601D9
:1047200030E020E02A153B050CF0C1C041915191C9
:104730004817590709F4B3C02F5F3F4FF3CF8E01DD
:104740000F5F1F4F81E5F80111928A95E9F73A0151
:104750006801912C812C2701FCEE4F1AFAEF5F0AB9
:10476000F5E03F2E8A149B04FCF4D3012D913D917A
:104770003D01329EC001339E900D1124F2016081F3
:104780007181680F791FC6010E943D2E62968FAD20
:1047900062978F5F62968FAF6297FFEF8F1A9F0AC3
:1047A00025E0C20ED11CDECFB801C7010E94A11DB9
:1047B00081115BC0670130EFC31A3AEFD30AD6010B
:1047C0002D913C9181E5829FD001839FB00D1124F2
:1047D000AE0DBF1DF80101900D928A95E1F72F5F94
:1047E0003F4FF6013183208321153105F1F1C701D7
:1047F000805B9F4FDC014C9150E0EF56F440A1E00C
:10480000B0E0A217B30724F110E000E070E060E030
:10481000E1E5BE2E021713072CF5DC01EC91E4173D
:10482000150689F4B69ED001B79EB00D1124AE0DC9
:10483000BF1DFC01E055F109AB2C01900D92AA942B
:10484000E1F76F5F7F4F0F5F1F4F8F5A9F4FE2CF90
:10485000608170E0641775070CF4AB011196EF5A94
:10486000FF4FCFCFF60171836083C95ADF4F0FB678
:10487000F894DEBF0FBECDBFDF91CF911F910F9196
:10488000FF90EF90DF90CF90BF90AF909F908F9070
:104890007F906F905F904F903F902F90089583018D
:1048A0009501A601B101C7010E94292322CF649678
:1048B000AEADBFAD64978D939C93830168962EAD8A
:1048C0003FAD6897EECF2F923F924F925F926F92DB
:1048D0007F928F929F92AF92BF92CF92DF92EF9290
:1048E000FF920F931F93CF93DF93CDB7DEB7C452E0
:1048F000D1400FB6F894DEBF0FBECDBFE0E1F5E0CA
:10490000DC018F011D9201501040E1F7FC01E05FD6
:10491000FA4F1182108232967183608332965183EE
:1049200040833296318320838E010F5F1F4FE12C2D
:10493000FF24F394D801F7011D923197E9F7FB01A9
:10494000E05BFF4FE0814E2E512C38015B01912C32
:10495000812CBA01605B7F4FCF5DDE4F7983688326
:10496000C152D140841495040CF044C0CF5DDE4F99
:10497000A881B981C152D1406C91262E312CFA0107
:1049800070E060E0621573055CF57F01CD5DDE4F80
:10499000B982A882C352D1406701CE1ADF0AC2167B
:1049A000D3060CF04AC0D701DD907D01B8E7DB16D5
:1049B00049F0CD5DDE4FA881B981C352D140CC9082
:1049C000DC1041C0CD5DDE4FA881B981C352D1401A
:1049D0001196CD5DDE4FB983A883C352D140DCCFA1
:1049E000BFEF8B1A9B0AE0E16E0E711CF5E0AF0E73
:1049F000B11CB8CF30E020E0AE014F5F5E4F70E0F9
:104A000060E00E942923CC5DDE4F0FB6F894DEBF34
:104A10000FBECDBFDF91CF911F910F91FF90EF900F
:104A2000DF90CF90BF90AF909F908F907F906F90CE
:104A30005F904F903F902F900895D301A60FB71F1E
:104A4000FF24F394FC926F5F7F4F35969BCFEF92DC
:104A5000FF921F93CF93DF93CDB7DEB7CA53DB40EE
:104A60000FB6F894DEBF0FBECDBF7C0140911B0294
:104A700050911C026BE072E0CE018F5C954F0E945A
:104A8000802020911B0230911C02AE014E57554FE1
:104A9000BE016F5C754FCE01875E9A4F0E94632402
:104AA00068E177E0CE01875E9A4F0E94A11D182F22
:104AB00080916807811109C0C75DD54F88819981B0
:104AC000C952DA40892B09F484C0111183C02091A6
:104AD0001B0230911C0248E157E0BE016F5C754F2C
:104AE000CE0101960E946324CF5EDA4F88819981BE
:104AF000C151D540892B09F46DC0BE016F5F7F4F56
:104B0000CE01875E9A4F0E94A11DFE01E952F54F2A
:104B10001192119290E3DF011D929A95E9F76AE9EB
:104B200076E0111106C067EB76E0811102C06AEDF4
:104B300076E0CE018952954F0E943D2EFE01E75F3F
:104B4000F44F1192119280E3DF011D928A95E9F7EB
:104B5000F70112816EEE76E0111102C06EEF76E081
:104B6000CE01875F944F0E943D2E1A821982FE016A
:104B7000339686ECDF011D928A95E9F7BE016952F2
:104B8000754FCE0101960E943D2EBE01675F744FA6
:104B9000CE0101960E94292E1123C1F18091680750
:104BA00081111AC06DE474E0CE0101960E94292E95
:104BB000CE0101960E940B18C65CD44F0FB6F89434
:104BC000DEBF0FBECDBFDF91CF911F91FF90EF9061
:104BD000089511E080E099CF813059F462E177E0E7
:104BE00088E197E00E94342E892B19F463E574E084
:104BF000DBCF20E0AE014F5F5F4F68E177E080914F
:104C00001B0290911C020E94CF1CD2CFC759DA4FD1
:104C10008881C956D540882329F2813049F462E160
:104C200077E0CE01875E9A4F0E94342E892BF1F2F5
:104C300020E0AE014F5F5F4FBE01675E7A4FDFCF6E
:104C40001F920F920FB60F9211242F933F938F93C1
:104C50009F93AF93BF938091210890912208A091D8
:104C60002308B09124083091200823E0230F2D372A
:104C700058F50196A11DB11D2093200880932108AD
:104C800090932208A0932308B093240880912508CC
:104C900090912608A0912708B09128080196A11D9F
:104CA000B11D8093250890932608A0932708B09300
:104CB0002808BF91AF919F918F913F912F910F90B5
:104CC0000FBE0F901F90189526E8230F0296A11D86
:104CD000B11DD2CF1F920F920FB60F9211240BB6B7
:104CE0000F922F933F934F935F936F937F938F9385
:104CF0009F93AF93BF93EF93FF938DE298E00E9451
:104D00001809FF91EF91BF91AF919F918F917F9182
:104D10006F915F914F913F912F910F900BBE0F902C
:104D20000FBE0F901F9018951F920F920FB60F9203
:104D300011240BB60F922F938F939F93EF93FF93B2
:104D4000E0913D08F0913E088081E0914308F091A8
:104D5000440882FD1DC09081809146088F5F8F734B
:104D600020914708821741F0E0914608F0E0E35DAA
:104D7000F74F958F80934608FF91EF919F918F9108
:104D80002F910F900BBE0F900FBE0F901F90189594
:104D90008081F2CF1F920F920FB60F9211240BB6A3
:104DA0000F922F933F934F935F936F937F938F93C4
:104DB0009F93AF93BF93EF93FF938091B900887F48
:104DC000803609F44DC008F040C0883209F4A9C00B
:104DD00028F5803109F49DC0C8F4882309F4FBC08C
:104DE000883009F496C0FF91EF91BF91AF919F91E8
:104DF0008F917F916F915F914F913F912F910F9084
:104E00000BBE0F900FBE0F901F901895883109F4BC
:104E100088C0803241F78093F20714C0803409F4CF
:104E20009DC040F48033B9F38833E9F68093F207EC
:104E300085ECB0C0803509F485C0883509F496C08A
:104E4000883489F60E947819CECF883909F48CC04D
:104E500038F5883729F050F4883611F0803719F684
:104E600083E08093F3071092F10757C0883809F464
:104E70007BC0803919F0803809F0B5CF8091F107F7
:104E8000803208F071C0E091F10781E08E0F8093CD
:104E9000F1078091BB00F0E0EF52F84F80833DC0F6
:104EA000803B39F0E0F4803A09F479C0883A09F09F
:104EB0009ACF84E08093F3071092D0071092CF0727
:104EC000E0911C08F0911D0819958091CF07811180
:104ED0000FC081E08093CF071092AF0709C0803CDC
:104EE00009F4A6CF883C09F4A3CF883B09F07BCF17
:104EF000E091D00781E08E0F8093D007F0E0E1557C
:104F0000F84F80818093BB009091D0078091CF07AC
:104F100029C0809118088093BB0085EC8093BC0069
:104F200062CF9091170880911608981758F5E09174
:104F3000170881E08E0F80931708F0E0EA50F84FD1
:104F40008081E9CFE091170881E08E0F80931708E8
:104F50008091BB00F0E0EA50F84F808390911708F1
:104F6000809116089817C8F285E8D8CFE091170805
:104F700081E08E0F809317088091BB00F0E0EA502B
:104F8000F84F80838091F50781115CCF81E0809399
:104F9000F40784EA8093BC001092F30724CF85ECD9
:104FA0008093BC001092F3078091F107803230F4B7
:104FB000E091F107F0E0EF52F84F10826091F107B5
:104FC00070E0E0911A08F0911B0881ED97E01995C7
:104FD0001092F10708CF1092F20734CFEDE2F8E01B
:104FE0001382128248EE53E060E070E04483558300
:104FF0006683778383E992E09183808385EC90E0F8
:105000009587848784EC90E09787868780EC90E092
:10501000918B808B81EC90E0938B828B82EC90E083
:10502000958B848B86EC90E0978B868B118E128EFD
:10503000138E148EAAECB8E013961C921E9212974F
:1050400014964D935D936D937C93179785EA92E048
:1050500011969C938E93ECE4F9E01382128220E87F
:1050600030E03583248380E490E097838683318722
:10507000208793878287168A158614861786168658
:1050800081E0858B848B2FEF3FEF338B228B318B2D
:10509000208B878B108E128E118E83EF92E091837E
:1050A0008083148E138EB68FA58F10A2178E8FEF6C
:1050B00084A385A386A387A380A780E89AE1A6E0BE
:1050C000B0E085AB96ABA7ABB0AF80EA96E8A1E0C5
:1050D000B0E081AF92AFA3AFB4AF80E586AF17AEBB
:1050E000EAE1F9E083E090E0928381831382148205
:1050F00015821682178210861186128613861082F8
:1051000082E090E0968785871786108A118A128A36
:10511000138A148A158A168A178A148682E190E007
:10512000928F818F138E148E158E168E178E10A26D
:1051300011A212A213A2108E83E190E096A385A380
:1051400017A210A611A612A613A614A615A616A697
:1051500017A614A211AA10AA87E493E09093170946
:105160008093160983E393E09093130980931209C7
:10517000E0E0F9E08FED92E09183808384EC99E0A8
:10518000A0E0B0E084839583A683B783108A118A58
:105190001086118612861386148615861686178643
:1051A000E0EFF8E02BEC32E03183208382839383BD
:1051B000A483B583168617861682178210861186F9
:1051C0001286138614861586E9EDF8E027EB32E0A7
:1051D0003183208381879287A387B487158A168AB3
:1051E000158616861786108A118A128A138A148ADF
:1051F0008FE193E09093D7088093D6080895789430
:1052000084B5826084BD84B5816084BD85B58260CB
:1052100085BD85B5816085BD80916E00816080937C
:105220006E001092810080918100826080938100E5
:1052300080918100816080938100809180008160F5
:10524000809380008091B10084608093B100809150
:10525000B00081608093B000809191008260809363
:1052600091008091910081608093910080919000E5
:105270008160809390008091A10082608093A10062
:105280008091A10081608093A1008091A000816045
:105290008093A00080912101826080932101809100
:1052A00021018160809321018091200181608093A0
:1052B000200180917A00846080937A0080917A0046
:1052C000826080937A0080917A00816080937A0076
:1052D00080917A00806880937A001092C100E091FA
:1052E0003D08F0913E0882E08083E0913908F0911A
:1052F0003A081082E0913B08F0913C088FEC8083E3
:1053000010924508E0914108F091420886E08083C0
:10531000E0913F08F0914008808180618083E091B6
:105320003F08F0914008808188608083E0913F08C9
:10533000F0914008808180688083E0913F08F0917F
:10534000400880818F7D808380916B0990916C09EA
:10535000892B11F10E94EB172091520930915309CA
:105360008091500990915109213231050CF0B5C05E
:10537000B9016052710977FF02C06F5F7F4F759569
:1053800067958357910997FD019600E210E023E7A6
:1053900030E04AE657E0B4C02091520930915309F9
:1053A000C901079697FD0796B3E095958795BA953D
:1053B000E1F72091500930915109AC01429FC001A1
:1053C000439F900D529F900D11240E94F82C9093B2
:1053D0006C0980936B09892B09F0BCCF81E0809325
:1053E00060098093610981E090E090935F09809368
:1053F0005E0990935D0980935C0960E086E30E94FA
:105400000F0861E086E00E940F0861E087E00E94DB
:105410000F0861E088E00E940F0861E089E00E94C7
:105420000F0861E08AE00E940F0861E08BE00E94B3
:105430000F0861E08CE00E940F0861E08DE00E949F
:105440000F0862E083E00E940F0862E082E00E94A1
:105450000F0862E082E10E940F0862E083E10E948F
:105460000F0861E082E199E00E94CE068AE199E0AE
:105470000E94FB1686E299E00E94FB1682E399E007
:105480000E94FB168EE399E00E94FB1680914A0968
:1054900090914B09DC01ED91FC910280F381E02DAC
:1054A000199580911A0981110EC2809126098111E6
:1054B0001CC280913209882309F426C21092320955
:1054C00010923D0980914A0990914B09DC01ED91C0
:1054D000FC910284F385E02D04C2B9016054710986
:1054E00077FF02C06F5F7F4F759567958255910971
:1054F00097FD019600E410E022E530E04AE459E02F
:10550000959587950E94911082E080936E09809115
:10551000690990916A09892B09F4DFC08DE38093B2
:105520006D0910921F0810921E0810922A081092FE
:1055300029080E94FF0982EA98E090931D08809351
:105540001C0883EA98E090931B0880931A088091C6
:10555000740987FD1EC061E00E940F0861E0809120
:1055600074090E948B0761E070E080E090E00E9487
:10557000700860E0809174090E948B076AE070E017
:1055800080E090E00E94700861E0809174090E94C0
:105590008B078091690990916A09892B09F45CC194
:1055A00020918109309182094091830950918409A9
:1055B00060E074E284EF90E00E94BA2C205131093F
:1055C0004109510956954795379527952093B8007D
:1055D00064E086E697E00E94FC13609152096150F6
:1055E0008CE499E00E94B11464E082E697E00E94A6
:1055F000FC1380916E0964E1813009F460E18CE470
:1056000099E00E94B11464E08EE597E00E94FC13DB
:105610008FE88093890980915009909151098038D1
:10562000910509F032C1809152099091530980345B
:10563000910509F03AC180916E09813009F423C1C6
:105640008FEC80938909C2E16AED8CE499E00E94B5
:10565000B1146C2F8CE499E00E94B11461E88CE4E1
:1056600099E00E94B114609189098CE499E00E944C
:10567000B11469ED8CE499E00E94B11480916E0937
:1056800061EF813009F462E28CE499E00E94B11488
:1056900066E088E597E00E94FC138091690990918B
:1056A0006A09892B09F405C1209185093091860981
:1056B000409187095091880960E074E284EF90E09E
:1056C0000E94BA2C2051310941095109569547953C
:1056D000379527952093B80081CE61E080917209BB
:1056E0000E940F0861E0809173090E940F08809169
:1056F0007209082E000C990BFC01E85AF34FE49153
:10570000F0E0EE0FFF1FEC5DF34F259134913093E5
:105710007A0920937909FC01E256F34FE491E09372
:105720007F0980917309082E000C990BFC01E85A3F
:10573000F34FE491F0E0EE0FFF1FEC5DF34FA59106
:10574000B491B0937C09A0937B09FC01E256F34F1E
:10575000E491E09380098C91E82BEC9380916709A8
:1057600090916809892B09F434C0CFB7F8948091DF
:105770001908811127C0EDE8FCE08491E3EDFCE01D
:105780009491E82FF0E0EE0FFF1FE65FF34FA59135
:10579000B491EC91E92321F461E085E30E948B0749
:1057A00061E085E30E940F088CB580618CBD8CB5EB
:1057B00080648CBD61E084E30E940F0861E083E3B4
:1057C0000E940F08809119088F5F80931908CFBF3E
:1057D000BECE61E0809170090E940F0861E0809167
:1057E00071090E940F0880917009082E000C990B16
:1057F000FC01E85AF34FE491F0E0EE0FFF1FEC5D7F
:10580000F34F259134913093760920937509FC016B
:10581000E256F34FE491E0937D0980917109082EDF
:10582000000C990BFC01E85AF34FE491F0E0EE0F05
:10583000FF1FEC5DF34FA591B491B0937809A0934D
:105840007709FC01E256F34FE491E0937E098C91D5
:10585000E095E823EC937BCE8091670990916809ED
:10586000892B31F080918A0990918B090E94131540
:10587000E0917B09F0917C0990818091800980956D
:1058800089238083A5CE8FE9DCCE8036910569F42B
:105890008091520990915309409739F480916E0993
:1058A000813029F08FEA80938909C2E0CDCE80E172
:1058B000FACFE0917B09F0917C0980819091800979
:1058C000892B80838BCD10921A0910922509809123
:1058D0004A0990914B09DC01ED91FC910680F7811A
:1058E000E02D19950E94A709C1CD109226091092AA
:1058F000310980914A0990914B09DC01ED91FC91AD
:105900000084F185E02DEDCF80913E09882351F38D
:1059100010923E091092490980914A0990914B09D1
:10592000DC01ED91FC910484F585E02DDACF83EF65
:1059300092E090934D0980934C0980916B0990916E
:105940006C09009711F00C94942D089597FB072E85
:1059500016F4009407D077FD09D00E94E42C07FCD0
:1059600005D03EF4909581959F4F0895709561956F
:105970007F4F0895A1E21A2EAA1BBB1BFD010DC08B
:10598000AA1FBB1FEE1FFF1FA217B307E407F507EF
:1059900020F0A21BB30BE40BF50B661F771F881FCB
:1059A000991F1A9469F760957095809590959B0161
:1059B000AC01BD01CF010895EE0FFF1F881F8BBF03
:1059C0000790F691E02D1994AA1BBB1B51E107C06B
:1059D000AA1FBB1FA617B70710F0A61BB70B881F7F
:1059E000991F5A95A9F780959095BC01CD0108950E
:1059F0000F931F93CF93DF938230910510F482E0D1
:105A000090E0E0918E09F0918F0930E020E0B0E065
:105A1000A0E0309799F42115310509F44AC0281BFC
:105A2000390B24303105D8F58A819B8161157105C8
:105A300089F1FB0193838283FE0111C04081518172
:105A40000281138148175907E0F04817590799F464
:105A5000109761F012960C93129713961C9332963E
:105A6000CF01DF91CF911F910F91089500938E097F
:105A700010938F09F4CF2115310551F042175307C8
:105A800038F0A901DB019A01BD01DF01F801C1CFA6
:105A9000EF01F9CF90938F0980938E09CDCFFE014E
:105AA000E20FF31F819391932250310939832883A8
:105AB000D7CF20918C0930918D09232B41F420916F
:105AC0001F023091200230938D0920938C09209180
:105AD0001D0230911E022115310541F42DB73EB74C
