:100000000C9435010C9466010C9466010C94660105
:100010000C9466010C9466010C9466010C946601C4
:100020000C9466010C9466010C9466010C946601B4
:100030000C9466010C9466010C9466010C946601A4
:100040000C9466010C9466010C9466010C94660194
:100050000C9466010C9466010C9466010C9459038F
:100060000C9466010C94CD030C94A3030C946601CC
:100070000C9466010C9466010C9466010C94660164
:100080000C9466010C9466010C9466010C94660154
:100090000C9466010C9466010C9466010C94660144
:1000A0000C9466010C9466010C9466010C94660134
:1000B0000C9466010C9466010C9466010C94660124
:1000C0000C9466010C9466010C9466010C94660114
:1000D0000C9466010C9466010C9466010C94660104
:1000E0000C9466010C94AB010C94CB010C94C101EF
:1000F0000C9486050C94B9010C9425020C94C6014D
:100100000C9483020C94AF010C9494010C948C0118
:100110000C94A5010C9408030C9486010C9498018E
:100120000C94BB020C949B010C94A1010C946102F1
:100130000C9475020C94C7010C94B3010C949001BB
:100140000C9452020C94BD010000200023002600F4
:1001500029002C002F0032000001000003010601DD
:10016000090100000A0B02090C0D0E080703040127
:10017000000000000000000000000000000000007F
:10018000000000000000000000000000000012114C
:10019000100000000000000000000000000000004F
:1001A00000000000000000000000220025002800E0
:1001B0002B002E003100340002010000050108016F
:1001C0000B0100002100240027002A002D00300030
:1001D000330001010000040107010A0105050505BE
:1001E000070508080808020202020A0A08080404AF
:1001F00004040101010101010101030303030303DD
:100200000303040707070C0C0C0C0C0C0C0C02026B
:10021000020206060606060606060B0B0B0B0B0B68
:100220000B0B0102102020080810204010204080F5
:1002300002010201080402010102040810204080AA
:100240008040201008040201800402018040201038
:100250000804020108040201010204081020408081
:100260000102040810204080860511241FBECFEF34
:10027000D1E2DEBFCDBF00E00CBF12E0A0E0B2E0F3
:10028000EAE7FBE000E00BBF02C007900D92A63248
:10029000B107D9F722E0A6E2B2E001C01D92AC3D61
:1002A000B207E1F711E0C5E3D1E000E006C0219715
:1002B0000109802FFE010E94B305C433D10780E0FD
:1002C0000807A9F70E9403040C94BB050C940000D6
:1002D0008150823108F05AC0E82FF0E08827EC58AE
:1002E000FE4F8F4F0C94B3059401980186018C0149
:1002F0009001C6019B01A101A501AB01AF01B301B2
:10030000B901BD01C601C101C701CB0180918000C7
:100310008F77809380000895809180008F7DF9CF42
:1003200080918000877FF5CF84B58F7784BD089555
:1003300084B58F7DFBCF8091B0008F778093B00024
:1003400008958091B0008F7DF9CF809190008F77D4
:10035000809390000895809190008F7DF9CF8091D7
:100360009000877FF5CF8091A0008F778093A000C9
:1003700008958091A0008F7DF9CF8091A000877FA4
:10038000F5CF809120018F7780932001089580918F
:1003900020018F7DF9CF80912001877FF5CFCF930A
:1003A000DF9390E0FC01EE5DFD4F249184529E4F5F
:1003B000FC0184918823D1F090E0880F991FFC0103
:1003C000EE53FE4FA591B491FC01E855FE4FC59147
:1003D000D49161110EC09FB7F8948C91E22FE095F3
:1003E0008E238C932881E223E8839FBFDF91CF91F6
:1003F00008958FB7F894EC91E22BEC938FBFF6CF72
:100400003FB7F8948091D8029091D902A091DA0276
:10041000B091DB0226B5A89B05C02F3F19F00196CD
:10042000A11DB11D3FBFBA2FA92F982F8827BC014E
:10043000CD01620F711D811D911D42E0660F771F76
:10044000881F991F4A95D1F70895AF92BF92CF9216
:10045000DF92EF92FF920F931F93CF93DF936C0184
:100460007B018B01040F151FEB015E01AE18BF0865
:10047000C017D10759F06991D601ED91FC91019017
:10048000F081E02DC6011995892B79F7C501DF911F
:10049000CF911F910F91FF90EF90DF90CF90BF9081
:1004A000AF900895FC01538D448D252F30E0842FAB
:1004B00090E0821B930B541710F0CF96089501978C
:1004C0000895FC01918D828D981761F0A28DAE0F79
:1004D000BF2FB11D5D968C91928D9F5F9F73928F00
:1004E00090E008958FEF9FEF0895FC01918D828D2C
:1004F000981731F0828DE80FF11D858D90E00895F9
:100500008FEF9FEF0895FC01918D228D892F90E050
:10051000805C9F4F821B91098F739927089586E213
:1005200092E00E94830221E0892B09F420E0822FCF
:100530000895FC01A48DA80FB92FB11DA35ABF4F78
:100540002C91848D90E001968F739927848FA689D2
:10055000B7892C93A089B1898C91837080648C9326
:10056000938D848D981306C00288F389E02D8081D5
:100570008F7D80830895EF92FF920F931F93CF9307
:10058000DF93EC0181E0888F9B8D8C8D98131AC0CE
:10059000E889F989808185FF15C09FB7F894EE89B5
:1005A000FF896083E889F989808183708064808312
:1005B0009FBF81E090E0DF91CF911F910F91FF905D
:1005C000EF900895F62E0B8D10E00F5F1F4F0F7305
:1005D0001127E02E8C8D8E110CC00FB607FCFACFC0
:1005E000E889F989808185FFF5CFCE010E949902C3
:1005F000F1CFEB8DEC0FFD2FF11DE35AFF4FF08291
:100600009FB7F8940B8FEA89FB8980818062CFCFF6
:10061000CF93DF93EC01888D8823B9F0AA89BB8939
:10062000E889F9898C9185FD03C0808186FD0DC024
:100630000FB607FCF7CF8C9185FFF2CF808185FF45
:10064000EDCFCE010E949902E9CFDF91CF910895BD
:1006500080E090E0892B29F00E948F0281110E9496
:10066000000080E090E0892B49F080E090E0892B49
:1006700029F00E94000081110E94000080E090E0BB
:10068000892B49F080E090E0892B29F00E9400003E
:1006900081110E94000080E090E0892B49F080E009
:1006A00090E0892B29F00E94000081110C94000039
:1006B00008951F920F920FB60F9211242F933F931C
:1006C0008F939F93AF93BF938091D4029091D50263
:1006D000A091D602B091D7023091D30223E0230F2C
:1006E0002D3758F50196A11DB11D2093D30280939B
:1006F000D4029093D502A093D602B093D7028091F2
:10070000D8029091D902A091DA02B091DB02019651
:10071000A11DB11D8093D8029093D902A093DA0253
:10072000B093DB02BF91AF919F918F913F912F9139
:100730000F900FBE0F901F90189526E8230F02967A
:10074000A11DB11DD2CF1F920F920FB60F9211248F
:100750000BB60F922F933F934F935F936F937F93BB
:100760008F939F93AF93BF93EF93FF9386E292E0B3
:100770000E949902FF91EF91BF91AF919F918F914C
:100780007F916F915F914F913F912F910F900BBE91
:100790000F900FBE0F901F9018951F920F920FB6DB
:1007A0000F9211240BB60F922F938F939F93EF9379
:1007B000FF93E0913602F09137028081E0913C0294
:1007C000F0913D0282FD1DC0908180913F028F5FBC
:1007D0008F7320914002821741F0E0913F02F0E0D8
:1007E000EA5DFD4F958F80933F02FF91EF919F91BE
:1007F0008F912F910F900BBE0F900FBE0F901F90F7
:1008000018958081F2CFCF93DF93CDB7DEB7A19754
:100810000FB6F894DEBF0FBECDBF789484B582606A
:1008200084BD84B5816084BD85B5826085BD85B594
:10083000816085BD80916E00816080936E00109212
:10084000810080918100826080938100809181008D
:10085000816080938100809180008160809380001E
:100860008091B10084608093B1008091B00081607C
:100870008093B0008091910082608093910080917C
:1008800091008160809391008091900081608093BD
:1008900090008091A10082608093A1008091A100CE
:1008A00081608093A1008091A00081608093A0006E
:1008B00080912101826080932101809121018160DA
:1008C000809321018091200181608093200180919B
:1008D0007A00846080937A0080917A0082608093AD
:1008E0007A0080917A00816080937A0080917A000A
:1008F000806880937A001092C100E0913602F091F6
:10090000370282E08083E0913202F091330210825C
:10091000E0913402F09135028FEC808310923E0218
:10092000E0913A02F0913B0286E08083E091380248
:10093000F0913902808180618083E0913802F091EA
:100940003902808188608083E0913802F091390219
:10095000808180688083E0913802F0913902808143
:100960008F7D808360E086E30E94CF0161E08EE0AE
:100970000E94CF0161E08FE00E94CF0161E080E141
:100980000E94CF0161E081E10E94CF0161E082E13C
:100990000E94CF0161E083E10E94CF0161E084E128
:1009A0000E94CF0161E085E10E94CF017E0120E23B
:1009B000E20EF11C32E1A32E32E0B32E43ECC42E42
:1009C00042E0D42E3601F50181905F01912C10E0B8
:1009D00000E0F801E059FE4F8491F801E05DFD4F21
:1009E0002490F801E651FE4F34903320D9F0811164
:1009F0000E946801E32DF0E0EE0FFF1FE855FE4F67
:100A0000A591B4918FB7F8949401002E02C035954A
:100A100027950A94E2F7EC9120FD76C020942E22CF
:100A20002C928FBF0F5F1F4F0730110591F6E8E939
:100A3000F1E08491E8E5F2E00491E2E1F2E0149162
:100A4000112379F081110E946801E12FF0E0EE0F8F
:100A5000FF1FE85BFE4FA591B4918C91082381E0C4
:100A600009F480E08170F30181933F01F2E2AF1657
:100A7000F2E0BF0609F0A7CFF60181916F0119A23C
:100A8000805D88A3F70101900020E9F73197AF015D
:100A90004E195F09B70186E292E00E94250242E00A
:100AA00050E062E272E086E292E00E94250283ED6D
:100AB00092E08C159D0501F70E9400024B015C013C
:100AC00088E8482E83E1582E612C712C0E94000288
:100AD000681979098A099B09683E73408105910567
:100AE000A8F391E0491A510861087108E8EE8E0EEA
:100AF000E3E09E1EA11CB11C411451046104710469
:100B000029F70E94280356CF2E2A8ACFE6E2F2E088
:100B10001382128288EE93E0A0E0B0E08483958394
:100B2000A683B78384E092E09183808385EC90E094
:100B30009587848784EC90E09787868780EC90E0A7
:100B4000918B808B81EC90E0938B828B82EC90E098
:100B5000958B848B86EC90E0978B868B118E128E12
:100B6000138E148E0895EE0FFF1F881F8BBF079002
:0A0B7000F691E02D1994F894FFCFE0
:100B7A0000000000BB022502520208038302610240
:100B8A007502111315173133353751535557717390
:060B9A0075770D0A000052
:00000001FF
